{
  "_format": "hh-sol-artifact-1",
  "contractName": "TokenManagerERC20",
  "sourceName": "contracts/schain/TokenManagers/TokenManagerERC20.sol",
  "abi": [
    {
      "anonymous": false,
      "inputs": [
        {
          "indexed": false,
          "internalType": "address",
          "name": "oldValue",
          "type": "address"
        },
        {
          "indexed": false,
          "internalType": "address",
          "name": "newValue",
          "type": "address"
        }
      ],
      "name": "DepositBoxWasChanged",
      "type": "event"
    },
    {
      "anonymous": false,
      "inputs": [
        {
          "indexed": true,
          "internalType": "SchainHash",
          "name": "chainHash",
          "type": "bytes32"
        },
        {
          "indexed": true,
          "internalType": "address",
          "name": "erc20OnMainChain",
          "type": "address"
        },
        {
          "indexed": true,
          "internalType": "address",
          "name": "erc20OnSchain",
          "type": "address"
        }
      ],
      "name": "ERC20TokenAdded",
      "type": "event"
    },
    {
      "anonymous": false,
      "inputs": [
        {
          "indexed": true,
          "internalType": "SchainHash",
          "name": "chainHash",
          "type": "bytes32"
        },
        {
          "indexed": true,
          "internalType": "address",
          "name": "erc20OnMainChain",
          "type": "address"
        },
        {
          "indexed": true,
          "internalType": "address",
          "name": "erc20OnSchain",
          "type": "address"
        }
      ],
      "name": "ERC20TokenCreated",
      "type": "event"
    },
    {
      "anonymous": false,
      "inputs": [
        {
          "indexed": true,
          "internalType": "SchainHash",
          "name": "chainHash",
          "type": "bytes32"
        },
        {
          "indexed": true,
          "internalType": "address",
          "name": "contractOnMainnet",
          "type": "address"
        },
        {
          "indexed": false,
          "internalType": "uint256",
          "name": "amount",
          "type": "uint256"
        }
      ],
      "name": "ERC20TokenReady",
      "type": "event"
    },
    {
      "anonymous": false,
      "inputs": [
        {
          "indexed": true,
          "internalType": "SchainHash",
          "name": "chainHash",
          "type": "bytes32"
        },
        {
          "indexed": true,
          "internalType": "address",
          "name": "erc20OnMainChain",
          "type": "address"
        },
        {
          "indexed": true,
          "internalType": "address",
          "name": "erc20OnSchain",
          "type": "address"
        },
        {
          "indexed": false,
          "internalType": "uint256",
          "name": "amount",
          "type": "uint256"
        }
      ],
      "name": "ERC20TokenReceived",
      "type": "event"
    },
    {
      "anonymous": false,
      "inputs": [
        {
          "indexed": false,
          "internalType": "uint8",
          "name": "version",
          "type": "uint8"
        }
      ],
      "name": "Initialized",
      "type": "event"
    },
    {
      "anonymous": false,
      "inputs": [
        {
          "indexed": true,
          "internalType": "bytes32",
          "name": "role",
          "type": "bytes32"
        },
        {
          "indexed": true,
          "internalType": "bytes32",
          "name": "previousAdminRole",
          "type": "bytes32"
        },
        {
          "indexed": true,
          "internalType": "bytes32",
          "name": "newAdminRole",
          "type": "bytes32"
        }
      ],
      "name": "RoleAdminChanged",
      "type": "event"
    },
    {
      "anonymous": false,
      "inputs": [
        {
          "indexed": true,
          "internalType": "bytes32",
          "name": "role",
          "type": "bytes32"
        },
        {
          "indexed": true,
          "internalType": "address",
          "name": "account",
          "type": "address"
        },
        {
          "indexed": true,
          "internalType": "address",
          "name": "sender",
          "type": "address"
        }
      ],
      "name": "RoleGranted",
      "type": "event"
    },
    {
      "anonymous": false,
      "inputs": [
        {
          "indexed": true,
          "internalType": "bytes32",
          "name": "role",
          "type": "bytes32"
        },
        {
          "indexed": true,
          "internalType": "address",
          "name": "account",
          "type": "address"
        },
        {
          "indexed": true,
          "internalType": "address",
          "name": "sender",
          "type": "address"
        }
      ],
      "name": "RoleRevoked",
      "type": "event"
    },
    {
      "inputs": [],
      "name": "AUTOMATIC_DEPLOY_ROLE",
      "outputs": [
        {
          "internalType": "bytes32",
          "name": "",
          "type": "bytes32"
        }
      ],
      "stateMutability": "view",
      "type": "function"
    },
    {
      "inputs": [],
      "name": "DEFAULT_ADMIN_ROLE",
      "outputs": [
        {
          "internalType": "bytes32",
          "name": "",
          "type": "bytes32"
        }
      ],
      "stateMutability": "view",
      "type": "function"
    },
    {
      "inputs": [],
      "name": "MAINNET_HASH",
      "outputs": [
        {
          "internalType": "SchainHash",
          "name": "",
          "type": "bytes32"
        }
      ],
      "stateMutability": "view",
      "type": "function"
    },
    {
      "inputs": [],
      "name": "MAINNET_NAME",
      "outputs": [
        {
          "internalType": "string",
          "name": "",
          "type": "string"
        }
      ],
      "stateMutability": "view",
      "type": "function"
    },
    {
      "inputs": [],
      "name": "TOKEN_REGISTRAR_ROLE",
      "outputs": [
        {
          "internalType": "bytes32",
          "name": "",
          "type": "bytes32"
        }
      ],
      "stateMutability": "view",
      "type": "function"
    },
    {
      "inputs": [
        {
          "internalType": "string",
          "name": "originChainName",
          "type": "string"
        },
        {
          "internalType": "address",
          "name": "erc20OnOriginChain",
          "type": "address"
        },
        {
          "internalType": "address",
          "name": "newErc20OnSchain",
          "type": "address"
        }
      ],
      "name": "addERC20TokenByOwner",
      "outputs": [],
      "stateMutability": "nonpayable",
      "type": "function"
    },
    {
      "inputs": [
        {
          "internalType": "string",
          "name": "schainName",
          "type": "string"
        },
        {
          "internalType": "address",
          "name": "newTokenManager",
          "type": "address"
        }
      ],
      "name": "addTokenManager",
      "outputs": [],
      "stateMutability": "nonpayable",
      "type": "function"
    },
    {
      "inputs": [
        {
          "internalType": "contract ERC20OnChain",
          "name": "",
          "type": "address"
        }
      ],
      "name": "addedClones",
      "outputs": [
        {
          "internalType": "bool",
          "name": "",
          "type": "bool"
        }
      ],
      "stateMutability": "view",
      "type": "function"
    },
    {
      "inputs": [],
      "name": "automaticDeploy",
      "outputs": [
        {
          "internalType": "bool",
          "name": "",
          "type": "bool"
        }
      ],
      "stateMutability": "view",
      "type": "function"
    },
    {
      "inputs": [
        {
          "internalType": "address",
          "name": "newDepositBox",
          "type": "address"
        }
      ],
      "name": "changeDepositBoxAddress",
      "outputs": [],
      "stateMutability": "nonpayable",
      "type": "function"
    },
    {
      "inputs": [
        {
          "internalType": "SchainHash",
          "name": "",
          "type": "bytes32"
        },
        {
          "internalType": "address",
          "name": "",
          "type": "address"
        }
      ],
      "name": "clonesErc20",
      "outputs": [
        {
          "internalType": "contract ERC20OnChain",
          "name": "",
          "type": "address"
        }
      ],
      "stateMutability": "view",
      "type": "function"
    },
    {
      "inputs": [],
      "name": "communityLocker",
      "outputs": [
        {
          "internalType": "contract ICommunityLocker",
          "name": "",
          "type": "address"
        }
      ],
      "stateMutability": "view",
      "type": "function"
    },
    {
      "inputs": [],
      "name": "depositBox",
      "outputs": [
        {
          "internalType": "address",
          "name": "",
          "type": "address"
        }
      ],
      "stateMutability": "view",
      "type": "function"
    },
    {
      "inputs": [
        {
          "internalType": "address",
          "name": "",
          "type": "address"
        }
      ],
      "name": "deprecatedClonesErc20",
      "outputs": [
        {
          "internalType": "contract ERC20OnChain",
          "name": "",
          "type": "address"
        }
      ],
      "stateMutability": "view",
      "type": "function"
    },
    {
      "inputs": [],
      "name": "disableAutomaticDeploy",
      "outputs": [],
      "stateMutability": "nonpayable",
      "type": "function"
    },
    {
      "inputs": [],
      "name": "enableAutomaticDeploy",
      "outputs": [],
      "stateMutability": "nonpayable",
      "type": "function"
    },
    {
      "inputs": [
        {
          "internalType": "address",
          "name": "contractOnMainnet",
          "type": "address"
        },
        {
          "internalType": "uint256",
          "name": "amount",
          "type": "uint256"
        }
      ],
      "name": "exitToMainERC20",
      "outputs": [],
      "stateMutability": "nonpayable",
      "type": "function"
    },
    {
      "inputs": [
        {
          "internalType": "bytes32",
          "name": "role",
          "type": "bytes32"
        }
      ],
      "name": "getRoleAdmin",
      "outputs": [
        {
          "internalType": "bytes32",
          "name": "",
          "type": "bytes32"
        }
      ],
      "stateMutability": "view",
      "type": "function"
    },
    {
      "inputs": [
        {
          "internalType": "bytes32",
          "name": "role",
          "type": "bytes32"
        },
        {
          "internalType": "uint256",
          "name": "index",
          "type": "uint256"
        }
      ],
      "name": "getRoleMember",
      "outputs": [
        {
          "internalType": "address",
          "name": "",
          "type": "address"
        }
      ],
      "stateMutability": "view",
      "type": "function"
    },
    {
      "inputs": [
        {
          "internalType": "bytes32",
          "name": "role",
          "type": "bytes32"
        }
      ],
      "name": "getRoleMemberCount",
      "outputs": [
        {
          "internalType": "uint256",
          "name": "",
          "type": "uint256"
        }
      ],
      "stateMutability": "view",
      "type": "function"
    },
    {
      "inputs": [
        {
          "internalType": "bytes32",
          "name": "role",
          "type": "bytes32"
        },
        {
          "internalType": "address",
          "name": "account",
          "type": "address"
        }
      ],
      "name": "grantRole",
      "outputs": [],
      "stateMutability": "nonpayable",
      "type": "function"
    },
    {
      "inputs": [
        {
          "internalType": "bytes32",
          "name": "role",
          "type": "bytes32"
        },
        {
          "internalType": "address",
          "name": "account",
          "type": "address"
        }
      ],
      "name": "hasRole",
      "outputs": [
        {
          "internalType": "bool",
          "name": "",
          "type": "bool"
        }
      ],
      "stateMutability": "view",
      "type": "function"
    },
    {
      "inputs": [
        {
          "internalType": "string",
          "name": "schainName",
          "type": "string"
        }
      ],
      "name": "hasTokenManager",
      "outputs": [
        {
          "internalType": "bool",
          "name": "",
          "type": "bool"
        }
      ],
      "stateMutability": "view",
      "type": "function"
    },
    {
      "inputs": [
        {
          "internalType": "string",
          "name": "newChainName",
          "type": "string"
        },
        {
          "internalType": "contract IMessageProxyForSchain",
          "name": "newMessageProxy",
          "type": "address"
        },
        {
          "internalType": "contract ITokenManagerLinker",
          "name": "newIMALinker",
          "type": "address"
        },
        {
          "internalType": "contract ICommunityLocker",
          "name": "newCommunityLocker",
          "type": "address"
        },
        {
          "internalType": "address",
          "name": "newDepositBox",
          "type": "address"
        }
      ],
      "name": "initialize",
      "outputs": [],
      "stateMutability": "nonpayable",
      "type": "function"
    },
    {
      "inputs": [
        {
          "internalType": "string",
          "name": "newSchainName",
          "type": "string"
        },
        {
          "internalType": "contract IMessageProxyForSchain",
          "name": "newMessageProxy",
          "type": "address"
        },
        {
          "internalType": "contract ITokenManagerLinker",
          "name": "newIMALinker",
          "type": "address"
        },
        {
          "internalType": "contract ICommunityLocker",
          "name": "newCommunityLocker",
          "type": "address"
        },
        {
          "internalType": "address",
          "name": "newDepositBox",
          "type": "address"
        }
      ],
      "name": "initializeTokenManager",
      "outputs": [],
      "stateMutability": "nonpayable",
      "type": "function"
    },
    {
      "inputs": [],
      "name": "messageProxy",
      "outputs": [
        {
          "internalType": "contract IMessageProxyForSchain",
          "name": "",
          "type": "address"
        }
      ],
      "stateMutability": "view",
      "type": "function"
    },
    {
      "inputs": [
        {
          "internalType": "SchainHash",
          "name": "fromChainHash",
          "type": "bytes32"
        },
        {
          "internalType": "address",
          "name": "sender",
          "type": "address"
        },
        {
          "internalType": "bytes",
          "name": "data",
          "type": "bytes"
        }
      ],
      "name": "postMessage",
      "outputs": [],
      "stateMutability": "nonpayable",
      "type": "function"
    },
    {
      "inputs": [
        {
          "internalType": "string",
          "name": "schainName",
          "type": "string"
        }
      ],
      "name": "removeTokenManager",
      "outputs": [],
      "stateMutability": "nonpayable",
      "type": "function"
    },
    {
      "inputs": [
        {
          "internalType": "bytes32",
          "name": "role",
          "type": "bytes32"
        },
        {
          "internalType": "address",
          "name": "account",
          "type": "address"
        }
      ],
      "name": "renounceRole",
      "outputs": [],
      "stateMutability": "nonpayable",
      "type": "function"
    },
    {
      "inputs": [
        {
          "internalType": "bytes32",
          "name": "role",
          "type": "bytes32"
        },
        {
          "internalType": "address",
          "name": "account",
          "type": "address"
        }
      ],
      "name": "revokeRole",
      "outputs": [],
      "stateMutability": "nonpayable",
      "type": "function"
    },
    {
      "inputs": [],
      "name": "schainHash",
      "outputs": [
        {
          "internalType": "SchainHash",
          "name": "",
          "type": "bytes32"
        }
      ],
      "stateMutability": "view",
      "type": "function"
    },
    {
      "inputs": [
        {
          "internalType": "bytes4",
          "name": "interfaceId",
          "type": "bytes4"
        }
      ],
      "name": "supportsInterface",
      "outputs": [
        {
          "internalType": "bool",
          "name": "",
          "type": "bool"
        }
      ],
      "stateMutability": "view",
      "type": "function"
    },
    {
      "inputs": [],
      "name": "tokenManagerLinker",
      "outputs": [
        {
          "internalType": "contract ITokenManagerLinker",
          "name": "",
          "type": "address"
        }
      ],
      "stateMutability": "view",
      "type": "function"
    },
    {
      "inputs": [
        {
          "internalType": "SchainHash",
          "name": "",
          "type": "bytes32"
        }
      ],
      "name": "tokenManagers",
      "outputs": [
        {
          "internalType": "address",
          "name": "",
          "type": "address"
        }
      ],
      "stateMutability": "view",
      "type": "function"
    },
    {
      "inputs": [
        {
          "internalType": "contract IERC20Upgradeable",
          "name": "",
          "type": "address"
        }
      ],
      "name": "totalSupplyOnMainnet",
      "outputs": [
        {
          "internalType": "uint256",
          "name": "",
          "type": "uint256"
        }
      ],
      "stateMutability": "view",
      "type": "function"
    },
    {
      "inputs": [
        {
          "internalType": "string",
          "name": "targetSchainName",
          "type": "string"
        },
        {
          "internalType": "address",
          "name": "contractOnMainnet",
          "type": "address"
        },
        {
          "internalType": "uint256",
          "name": "amount",
          "type": "uint256"
        }
      ],
      "name": "transferToSchainERC20",
      "outputs": [],
      "stateMutability": "nonpayable",
      "type": "function"
    },
    {
      "inputs": [
        {
          "internalType": "string",
          "name": "targetSchainName",
          "type": "string"
        },
        {
          "internalType": "address",
          "name": "contractOnMainnet",
          "type": "address"
        },
        {
          "internalType": "uint256",
          "name": "amount",
          "type": "uint256"
        },
        {
          "internalType": "address",
          "name": "receiver",
          "type": "address"
        }
      ],
      "name": "transferToSchainERC20Direct",
      "outputs": [],
      "stateMutability": "nonpayable",
      "type": "function"
    },
    {
      "inputs": [
        {
          "internalType": "SchainHash",
          "name": "",
          "type": "bytes32"
        },
        {
          "internalType": "address",
          "name": "",
          "type": "address"
        }
      ],
      "name": "transferredAmount",
      "outputs": [
        {
          "internalType": "uint256",
          "name": "",
          "type": "uint256"
        }
      ],
      "stateMutability": "view",
      "type": "function"
    }
  ],
  "bytecode": "0x6080604052348015600f57600080fd5b50615af28061001f6000396000f3fe608060405234801561001057600080fd5b50600436106102325760003560e01c80636d6c68e611610130578063babc4a33116100b8578063d547741f1161007c578063d547741f1461056c578063dec2deb61461057f578063eafd15c814610593578063edcc12b5146105a6578063f429e383146105b957600080fd5b8063babc4a33146104e1578063c0e312dc1461050c578063ca15c8731461051f578063cb703bff14610532578063cc5b715b1461054557600080fd5b80639010d07c116100ff5780639010d07c1461048857806391d148541461049b578063a217fddf146104ae578063aebaaca9146104b6578063b9581c50146104d957600080fd5b80636d6c68e61461043c578063800d86921461044f5780638504950614610462578063884cee5a1461047557600080fd5b806339927cf9116101be578063510d8a5811610182578063510d8a58146103bc5780635573b8b6146103f057806368eb2022146104035780636ce681d2146104165780636d6112861461042957600080fd5b806339927cf91461032f5780633b690b6b146103425780633fa194ce1461034b578063467a5d811461036057806350f442801461038957600080fd5b8063248a9ca311610205578063248a9ca3146102bd57806328c5e182146102ee5780632dc151de146102f65780632f2ff15d1461030957806336568abe1461031c57600080fd5b806301ffc9a714610237578063029996b81461025f5780630b885ac3146102695780630f1a8f741461027c575b600080fd5b61024a6102453660046132f8565b6105d9565b60405190151581526020015b60405180910390f35b610267610604565b005b610267610277366004613444565b610656565b6102a561028a3660046134cd565b60ce602052600090815260409020546001600160a01b031681565b6040516001600160a01b039091168152602001610256565b6102e06102cb3660046134cd565b60009081526065602052604090206001015490565b604051908152602001610256565b6102e061066a565b60ca546102a5906001600160a01b031681565b6102676103173660046134e6565b6106b3565b61026761032a3660046134e6565b6106dd565b61024a61033d366004613557565b61075b565b6102e060cc5481565b6102e0600080516020615a9d83398151915281565b6102a561036e366004613598565b60cf602052600090815260409020546001600160a01b031681565b6103af6040518060400160405280600781526020016613585a5b9b995d60ca1b81525081565b6040516102569190613605565b6102a56103ca3660046134e6565b60d26020908152600092835260408084209091529082529020546001600160a01b031681565b60c9546102a5906001600160a01b031681565b610267610411366004613618565b6107b6565b610267610424366004613444565b6108c2565b60cd546102a5906001600160a01b031681565b60cb546102a5906001600160a01b031681565b61026761045d366004613644565b610b22565b6102676104703660046136a9565b610dac565b610267610483366004613705565b610dbf565b6102a5610496366004613760565b610f43565b61024a6104a93660046134e6565b610f62565b6102e0600081565b61024a6104c4366004613598565b60d16020526000908152604090205460ff1681565b610267610f8d565b6102e06104ef3660046134e6565b60d360209081526000928352604080842090915290825290205481565b61026761051a366004613557565b610fd0565b6102e061052d3660046134cd565b6110e5565b610267610540366004613782565b6110fc565b6102e07ffda70c2cc66a36c14884ee85424961f51b1d92b4494751699b6d105b3bcbcba881565b61026761057a3660046134e6565b611278565b60cd5461024a90600160a01b900460ff1681565b6102676105a13660046137d8565b61129d565b6102676105b4366004613598565b6116e6565b6102e06105c7366004613598565b60d06020526000908152604090205481565b60006001600160e01b03198216635a05180f60e01b14806105fe57506105fe826117fc565b92915050565b61061c600080516020615a9d83398151915233610f62565b6106415760405162461bcd60e51b81526004016106389061383f565b60405180910390fd5b60cd805460ff60a01b1916600160a01b179055565b61066385858585856108c2565b5050505050565b6040518060400160405280600781526020016613585a5b9b995d60ca1b81525060405160200161069a9190613880565b6040516020818303038152906040528051906020012081565b6000828152606560205260409020600101546106ce81611831565b6106d8838361183e565b505050565b6001600160a01b038116331461074d5760405162461bcd60e51b815260206004820152602f60248201527f416363657373436f6e74726f6c3a2063616e206f6e6c792072656e6f756e636560448201526e103937b632b9903337b91039b2b63360891b6064820152608401610638565b6107578282611860565b5050565b6000806001600160a01b031660ce6000858560405160200161077e92919061389c565b60408051808303601f19018152918152815160209283012083529082019290925201600020546001600160a01b031614159392505050565b60cb54604080518082018252600781526613585a5b9b995d60ca1b60208083019190915291516001600160a01b03909316926359315792926107f9929101613880565b60408051601f198184030181529082905280516020909101206001600160e01b031960e084901b1682526004820152336024820152604401600060405180830381600087803b15801561084b57600080fd5b505af115801561085f573d6000803e3d6000fd5b505050506107576040518060400160405280600781526020016613585a5b9b995d60ca1b8152506040516020016108969190613880565b60408051601f19818403018152919052805160209091012060cd546001600160a01b0316843385611882565b600054610100900460ff16158080156108e25750600054600160ff909116105b806108fc5750303b1580156108fc575060005460ff166001145b61095f5760405162461bcd60e51b815260206004820152602e60248201527f496e697469616c697a61626c653a20636f6e747261637420697320616c72656160448201526d191e481a5b9a5d1a585b1a5e995960921b6064820152608401610638565b6000805460ff191660011790558015610982576000805461ff0019166101001790555b6001600160a01b0382166109d85760405162461bcd60e51b815260206004820181905260248201527f4465706f736974426f7820616464726573732068617320746f206265207365746044820152606401610638565b6109e0611daf565b6109eb600033611e1c565b610a03600080516020615a9d83398151915233611e1c565b610a2d7ffda70c2cc66a36c14884ee85424961f51b1d92b4494751699b6d105b3bcbcba833611e1c565b85604051602001610a3e9190613880565b60408051601f19818403018152828252805160209182012060cc5560c980546001600160a01b038a81166001600160a01b03199283161790925560ca80548a841690831617905560cb805489841690831617905560cd8054928816929091168217905560008452908301527fc968af77923193016f61d74ba6827296db5e1f37ec4fab3ad1ef20e193395e59910160405180910390a18015610b1a576000805461ff0019169055604051600181527f7f26b83ff96e1f2b6a682f133852f6798a09c465da95921460cefb38474024989060200160405180910390a15b505050505050565b84848080601f0160208091040260200160405190810160405280939291908181526020018383808284376000920182905250604051869450909250610b6c91508490602001613880565b60408051601f1981840301815282825280516020918201208383018352600784526613585a5b9b995d60ca1b848301529151919350610bcc928492610bb19201613880565b60405160208183030381529060405280519060200120141590565b610c315760405162461bcd60e51b815260206004820152603060248201527f546869732066756e6374696f6e206973206e6f7420666f72207472616e73666560448201526f1c9c9a5b99c81d1bc813585a5b9b995d60821b6064820152608401610638565b6001600160a01b038216610c875760405162461bcd60e51b815260206004820152601a60248201527f496e636f727265637420726563656976657220616464726573730000000000006044820152606401610638565b600081815260ce60205260409020546001600160a01b0316610ceb5760405162461bcd60e51b815260206004820152601f60248201527f496e636f727265637420546f6b656e204d616e616765722061646472657373006044820152606401610638565b60008888604051602001610d0092919061389c565b60408051808303601f1901815290829052805160209091012060cb54632c98abc960e11b8352600483018290523360248401529092506001600160a01b031690635931579290604401600060405180830381600087803b158015610d6357600080fd5b505af1158015610d77573d6000803e3d6000fd5b505050600082815260ce6020526040902054610da1915082906001600160a01b031689888a611882565b505050505050505050565b610db98484848433610b22565b50505050565b60c9546001600160a01b03163314610e195760405162461bcd60e51b815260206004820152601c60248201527f53656e646572206973206e6f742061204d65737361676550726f7879000000006044820152606401610638565b8383610e278260cc54141590565b8015610e385750610e388282611e26565b610e845760405162461bcd60e51b815260206004820152601b60248201527f526563656976657220636861696e20697320696e636f727265637400000000006044820152606401610638565b6000610e908585611eb3565b90506000600282600e811115610ea857610ea86138ac565b1480610ec55750600482600e811115610ec357610ec36138ac565b145b80610ee15750600382600e811115610edf57610edf6138ac565b145b15610ef857610ef1888787611efe565b9050610f39565b60405162461bcd60e51b815260206004820152601660248201527526b2b9b9b0b3b2aa3cb8329034b9903ab735b737bbb760511b6044820152606401610638565b5050505050505050565b6000828152609760205260408120610f5b90836124f1565b9392505050565b60009182526065602090815260408084206001600160a01b0393909316845291905290205460ff1690565b610fa5600080516020615a9d83398151915233610f62565b610fc15760405162461bcd60e51b81526004016106389061383f565b60cd805460ff60a01b19169055565b60ca546001600160a01b0316331480610fef5750610fef600033610f62565b6110335760405162461bcd60e51b81526020600482015260156024820152742737ba1030baba3437b934bd32b21031b0b63632b960591b6044820152606401610638565b6000828260405160200161104892919061389c565b60408051601f198184030181529181528151602092830120600081815260ce9093529120549091506001600160a01b03166110c55760405162461bcd60e51b815260206004820152601860248201527f546f6b656e204d616e61676572206973206e6f742073657400000000000000006044820152606401610638565b600090815260ce6020526040902080546001600160a01b03191690555050565b60008181526097602052604081206105fe906124fd565b60ca546001600160a01b031633148061111b575061111b600033610f62565b61115f5760405162461bcd60e51b81526020600482015260156024820152742737ba1030baba3437b934bd32b21031b0b63632b960591b6044820152606401610638565b6000838360405160200161117492919061389c565b60408051601f198184030181529181528151602092830120600081815260ce9093529120549091506001600160a01b0316156111f25760405162461bcd60e51b815260206004820152601c60248201527f546f6b656e204d616e6167657220697320616c726561647920736574000000006044820152606401610638565b6001600160a01b0382166112485760405162461bcd60e51b815260206004820152601f60248201527f496e636f727265637420546f6b656e204d616e616765722061646472657373006044820152606401610638565b600090815260ce6020526040902080546001600160a01b0319166001600160a01b03929092169190911790555050565b60008281526065602052604090206001015461129381611831565b6106d88383611860565b6112c77ffda70c2cc66a36c14884ee85424961f51b1d92b4494751699b6d105b3bcbcba833610f62565b6113135760405162461bcd60e51b815260206004820181905260248201527f544f4b454e5f5245474953545241525f524f4c452069732072657175697265646044820152606401610638565b6000848460405160200161132892919061389c565b60408051601f198184030181528282528051602091820120600081815260d283528381206001600160a01b03808a1683529352929092205460c954634ccd5cd560e11b855292945081169291169063999ab9aa9061138c90899089906004016138c2565b602060405180830381865afa1580156113a9573d6000803e3d6000fd5b505050506040513d601f19601f820116820180604052508101906113cd91906138f1565b6114125760405162461bcd60e51b815260206004820152601660248201527510da185a5b881a5cc81b9bdd0818dbdb9b9958dd195960521b6044820152606401610638565b6001600160a01b0383163b6114695760405162461bcd60e51b815260206004820152601f60248201527f476976656e2061646472657373206973206e6f74206120636f6e7472616374006044820152606401610638565b826001600160a01b03166318160ddd6040518163ffffffff1660e01b8152600401602060405180830381865afa1580156114a7573d6000803e3d6000fd5b505050506040513d601f19601f820116820180604052508101906114cb9190613913565b156115285760405162461bcd60e51b815260206004820152602760248201527f546f74616c20737570706c79206f662061206e657720746f6b656e206973206e6044820152666f74207a65726f60c81b6064820152608401610638565b6001600160a01b038116156115fb57806001600160a01b03166318160ddd6040518163ffffffff1660e01b8152600401602060405180830381865afa158015611575573d6000803e3d6000fd5b505050506040513d601f19601f820116820180604052508101906115999190613913565b156115fb5760405162461bcd60e51b815260206004820152602c60248201527f546f74616c20737570706c79206f6620612070726576696f757320746f6b656e60448201526b206973206e6f74207a65726f60a01b6064820152608401610638565b6001600160a01b038316600090815260d1602052604090205460ff16156116645760405162461bcd60e51b815260206004820152601760248201527f436c6f6e652077617320616c72656164792061646465640000000000000000006044820152606401610638565b600082815260d2602090815260408083206001600160a01b0388811680865291845282852080546001600160a01b031916918916918217905580855260d1909352818420805460ff1916600117905590519192909185917f89b97f12155170c72b8eb3449d5f1ba0c6a29e5546051dc35694313b1b60741f91a4505050505050565b6116f1600033610f62565b61173d5760405162461bcd60e51b815260206004820152601e60248201527f44454641554c545f41444d494e5f524f4c4520697320726571756972656400006044820152606401610638565b6001600160a01b0381166117935760405162461bcd60e51b815260206004820181905260248201527f4465706f736974426f7820616464726573732068617320746f206265207365746044820152606401610638565b60cd54604080516001600160a01b03928316815291831660208301527fc968af77923193016f61d74ba6827296db5e1f37ec4fab3ad1ef20e193395e59910160405180910390a160cd80546001600160a01b0319166001600160a01b0392909216919091179055565b60006001600160e01b03198216637965db0b60e01b14806105fe57506301ffc9a760e01b6001600160e01b03198316146105fe565b61183b8133612507565b50565b6118488282612560565b60008281526097602052604090206106d890826125e6565b61186a82826125fb565b60008281526097602052604090206106d89082612662565b600085815260d2602090815260408083206001600160a01b0380881685529252822054168061191c57506001600160a01b038416600090815260d16020526040902054849060ff16156119175760405162461bcd60e51b815260206004820152601a60248201527f496e636f7272656374206d61696e20636861696e20746f6b656e0000000000006044820152606401610638565b600191505b6001600160a01b0381163b6119735760405162461bcd60e51b815260206004820152601860248201527f4e6f20746f6b656e20636c6f6e65206f6e2073636861696e00000000000000006044820152606401610638565b6040516370a0823160e01b815233600482015283906001600160a01b038316906370a0823190602401602060405180830381865afa1580156119b9573d6000803e3d6000fd5b505050506040513d601f19601f820116820180604052508101906119dd9190613913565b1015611a205760405162461bcd60e51b8152602060048201526012602482015271496e73756666696369656e742066756e647360701b6044820152606401610638565b604051636eb1769f60e11b815233600482015230602482015283906001600160a01b0383169063dd62ed3e90604401602060405180830381865afa158015611a6c573d6000803e3d6000fd5b505050506040513d601f19601f82011682018060405250810190611a909190613913565b1015611aef5760405162461bcd60e51b815260206004820152602860248201527f5472616e73666572206973206e6f7420617070726f76656420627920746f6b6560448201526737103437b63232b960c11b6064820152608401610638565b6000611afc868686612677565b90508215611c5157611b38886040518060400160405280600781526020016613585a5b9b995d60ca1b815250604051602001610bb19190613880565b611ba05760405162461bcd60e51b815260206004820152603360248201527f4d61696e20636861696e20746f6b656e20636f756c64206e6f74206265207472604482015272185b9cd9995c9959081d1bc813585a5b9b995d606a1b6064820152608401610638565b611bac888387876126d6565b9050611bb988838661283c565b6040516323b872dd60e01b8152336004820152306024820152604481018590526001600160a01b038316906323b872dd906064016020604051808303816000875af1158015611c0c573d6000803e3d6000fd5b505050506040513d601f19601f82011682018060405250810190611c3091906138f1565b611c4c5760405162461bcd60e51b81526004016106389061392c565b611d3f565b6040516323b872dd60e01b8152336004820152306024820152604481018590526001600160a01b038316906323b872dd906064016020604051808303816000875af1158015611ca4573d6000803e3d6000fd5b505050506040513d601f19601f82011682018060405250810190611cc891906138f1565b611ce45760405162461bcd60e51b81526004016106389061392c565b604051630852cd8d60e31b8152600481018590526001600160a01b038316906342966c6890602401600060405180830381600087803b158015611d2657600080fd5b505af1158015611d3a573d6000803e3d6000fd5b505050505b60c954604051634a24490160e11b81526001600160a01b0390911690639448920290611d73908b908b908690600401613959565b600060405180830381600087803b158015611d8d57600080fd5b505af1158015611da1573d6000803e3d6000fd5b505050505050505050505050565b600054610100900460ff16611e1a5760405162461bcd60e51b815260206004820152602b60248201527f496e697469616c697a61626c653a20636f6e7472616374206973206e6f74206960448201526a6e697469616c697a696e6760a81b6064820152608401610638565b565b610757828261183e565b6000611e76836040518060400160405280600781526020016613585a5b9b995d60ca1b815250604051602001611e5c9190613880565b604051602081830303815290604052805190602001201490565b611e9c57600083815260ce60205260409020546001600160a01b03838116911614610f5b565b5060cd546001600160a01b03908116911614919050565b600080611ec2838501856134cd565b9050611ecf60208261398c565b600003611ef257611eea611ee5848381886139ae565b611eb3565b9150506105fe565b611eea838501856139ec565b600080611f0b8484611eb3565b90506000806000611f1c8787612878565b919450925090506000600285600e811115611f3957611f396138ac565b1461227a576000600386600e811115611f5457611f546138ac565b03611f99576000611f658a8a612926565b60209081015160008d815260d2835260408082206001600160a01b03808b1684529452902054909116935091506120f99050565b6000611fa58a8a6129f7565b60208082015160008e815260d2835260408082206001600160a01b03808c1684529452902054909116945092509050826120f75760cd54600160a01b900460ff166120325760405162461bcd60e51b815260206004820152601c60248201527f4175746f6d61746963206465706c6f792069732064697361626c6564000000006044820152606401610638565b806040015160000151816040015160400151604051612050906132eb565b61205b929190613a07565b604051809103906000f080158015612077573d6000803e3d6000fd5b5060008c815260d2602090815260408083206001600160a01b038a811680865291845282852080546001600160a01b031916918716918217905580855260d1909352818420805460ff191660011790559051939650909290918e917f817384d3c8c32b58342425cd864f5540355cc93dfbbfc2df8763793d2d3a5e129190a45b505b6001600160a01b038216600090815260d060205260409020548114612134576001600160a01b038216600090815260d0602052604090208190555b6000806121a2846001600160a01b03166318160ddd6040518163ffffffff1660e01b8152600401602060405180830381865afa158015612178573d6000803e3d6000fd5b505050506040513d601f19601f8201168201806040525081019061219c9190613913565b86612ae4565b90925090508180156121cc57506001600160a01b038416600090815260d060205260409020548111155b6122105760405162461bcd60e51b8152602060048201526015602482015274151bdd185b081cdd5c1c1b1e48195e18d959591959605a1b6044820152606401610638565b6040516340c10f1960e01b81526001600160a01b038881166004830152602482018790528516906340c10f1990604401600060405180830381600087803b15801561225a57600080fd5b505af115801561226e573d6000803e3d6000fd5b50505050505050612437565b6001600160a01b0383163b151580156122a65750600089815260d4602052604090206122a69084612b0d565b6122f25760405162461bcd60e51b815260206004820152601a60248201527f496e636f7272656374206d61696e20636861696e20746f6b656e0000000000006044820152606401610638565b6040516370a0823160e01b815230600482015282906001600160a01b038516906370a0823190602401602060405180830381865afa158015612338573d6000803e3d6000fd5b505050506040513d601f19601f8201168201806040525081019061235c9190613913565b101561239d5760405162461bcd60e51b815260206004820152601060248201526f4e6f7420656e6f756768206d6f6e657960801b6044820152606401610638565b6123a8898484612b2f565b60405163a9059cbb60e01b81526001600160a01b0385811660048301526024820184905284169063a9059cbb906044016020604051808303816000875af11580156123f7573d6000803e3d6000fd5b505050506040513d601f19601f8201168201806040525081019061241b91906138f1565b6124375760405162461bcd60e51b81526004016106389061392c565b806001600160a01b0316836001600160a01b03168a7f131b32ac87206ff25b3250e2d194c4cc6d63e928ab212dbd294b03b49af27b488560405161247d91815260200190565b60405180910390a460c95460405163e051116b60e01b81526001600160a01b0386811660048301529091169063e051116b90602401600060405180830381600087803b1580156124cc57600080fd5b505af11580156124e0573d6000803e3d6000fd5b50959b9a5050505050505050505050565b6000610f5b8383612b61565b60006105fe825490565b6125118282610f62565b6107575761251e81612b8b565b612529836020612b9d565b60405160200161253a929190613a2c565b60408051601f198184030181529082905262461bcd60e51b825261063891600401613605565b61256a8282610f62565b6107575760008281526065602090815260408083206001600160a01b03851684529091529020805460ff191660011790556125a23390565b6001600160a01b0316816001600160a01b0316837f2f8788117e7eff1d82e926ec794901d17c78024a50270940304540a733656f0d60405160405180910390a45050565b6000610f5b836001600160a01b038416612d38565b6126058282610f62565b156107575760008281526065602090815260408083206001600160a01b0385168085529252808320805460ff1916905551339285917ff6391f5c32d9c69d2a47ea670b442974b53935d1edc7fd64eb21e047a839171b9190a45050565b6000610f5b836001600160a01b038416612d87565b6040805160a08101825260026080820190815281526001600160a01b0380861660208084019190915290851682840152606080830185905292516126bd91839101613af4565b6040516020818303038152906040529150509392505050565b606060008490506000816001600160a01b03166318160ddd6040518163ffffffff1660e01b8152600401602060405180830381865afa15801561271d573d6000803e3d6000fd5b505050506040513d601f19601f820116820180604052508101906127419190613913565b9050808411156127895760405162461bcd60e51b8152602060048201526013602482015272105b5bdd5b9d081a5cc81a5b98dbdc9c9958dd606a1b6044820152606401610638565b600087815260d4602052604081206127a19088612b0d565b9050806127d6576127b28888612e7a565b6127cf8787876127c187612f8b565b6127ca88612fef565b613159565b93506127ed565b6127ea8787876127e587612f8b565b6131cf565b93505b866001600160a01b0316887f759c7e29aa34dec4bb9f3af86e647e11cffa0fee371049fd55e8779a2c24484e8760405161282991815260200190565b60405180910390a3505050949350505050565b600083815260d3602090815260408083206001600160a01b03861684529091528120805483929061286e908490613b18565b9091555050505050565b6000806000806128888686611eb3565b9050600281600e81111561289e5761289e6138ac565b036128cd5760006128af8787613240565b9050806040015181602001518260600151945094509450505061291f565b600381600e8111156128e1576128e16138ac565b036129135760006128f28787612926565b5160408101516020820151606090920151909650909450925061291f915050565b60006128f287876129f7565b9250925092565b6129656040805160e081018252600060c08201818152928201928352606082018190526080820181905260a08201529081908152602001600081525090565b60036129718484611eb3565b600e811115612982576129826138ac565b146129eb5760405162461bcd60e51b815260206004820152603360248201527f4d6573736167652074797065206973206e6f74204552433230207472616e7366604482015272657220616e6420746f74616c20737570706c7960681b6064820152608401610638565b610f5b82840184613bca565b612a536040805161010081018252600060e0820181815260608084019182526080840183905260a0840183905260c084018390529083526020808401839052845180830186528281529081019290925281840152909182015290565b6004612a5f8484611eb3565b600e811115612a7057612a706138ac565b14612ad85760405162461bcd60e51b815260206004820152603260248201527f4d6573736167652074797065206973206e6f74204552433230207472616e73666044820152716572207769746820746f6b656e20696e666f60701b6064820152608401610638565b610f5b82840184613c30565b60008083830184811015612aff576000809250925050612b06565b6001925090505b9250929050565b6001600160a01b03811660009081526001830160205260408120541515610f5b565b600083815260d3602090815260408083206001600160a01b03861684529091528120805483929061286e908490613d33565b6000826000018281548110612b7857612b78613d46565b9060005260206000200154905092915050565b60606105fe6001600160a01b03831660145b60606000612bac836002613d5c565b612bb7906002613b18565b6001600160401b03811115612bce57612bce613322565b6040519080825280601f01601f191660200182016040528015612bf8576020820181803683370190505b509050600360fc1b81600081518110612c1357612c13613d46565b60200101906001600160f81b031916908160001a905350600f60fb1b81600181518110612c4257612c42613d46565b60200101906001600160f81b031916908160001a9053506000612c66846002613d5c565b612c71906001613b18565b90505b6001811115612ce9576f181899199a1a9b1b9c1cb0b131b232b360811b85600f1660108110612ca557612ca5613d46565b1a60f81b828281518110612cbb57612cbb613d46565b60200101906001600160f81b031916908160001a90535060049490941c93612ce281613d73565b9050612c74565b508315610f5b5760405162461bcd60e51b815260206004820181905260248201527f537472696e67733a20686578206c656e67746820696e73756666696369656e746044820152606401610638565b6000818152600183016020526040812054612d7f575081546001818101845560008481526020808220909301849055845484825282860190935260409020919091556105fe565b5060006105fe565b60008181526001830160205260408120548015612e70576000612dab600183613d33565b8554909150600090612dbf90600190613d33565b9050818114612e24576000866000018281548110612ddf57612ddf613d46565b9060005260206000200154905080876000018481548110612e0257612e02613d46565b6000918252602080832090910192909255918252600188019052604090208390555b8554869080612e3557612e35613d8a565b6001900381819060005260206000200160009055905585600101600086815260200190815260200160002060009055600193505050506105fe565b60009150506105fe565b6001600160a01b0381163b612ed15760405162461bcd60e51b815260206004820152601f60248201527f476976656e2061646472657373206973206e6f74206120636f6e7472616374006044820152606401610638565b600082815260d460205260409020612ee99082612b0d565b15612f365760405162461bcd60e51b815260206004820152601d60248201527f455243323020546f6b656e2077617320616c72656164792061646465640000006044820152606401610638565b600082815260d460205260409020612f4e90826125e6565b506040516000906001600160a01b0383169084907f89b97f12155170c72b8eb3449d5f1ba0c6a29e5546051dc35694313b1b60741f908490a45050565b6000816001600160a01b03166318160ddd6040518163ffffffff1660e01b8152600401602060405180830381865afa158015612fcb573d6000803e3d6000fd5b505050506040513d601f19601f820116820180604052508101906105fe9190613913565b604080516060808201835280825260006020830152918101919091526040518060600160405280836001600160a01b03166306fdde036040518163ffffffff1660e01b8152600401600060405180830381865afa158015613054573d6000803e3d6000fd5b505050506040513d6000823e601f3d908101601f1916820160405261307c9190810190613da0565b8152602001836001600160a01b031663313ce5676040518163ffffffff1660e01b8152600401602060405180830381865afa1580156130bf573d6000803e3d6000fd5b505050506040513d601f19601f820116820180604052508101906130e39190613e0d565b60ff168152602001836001600160a01b03166395d89b416040518163ffffffff1660e01b8152600401600060405180830381865afa158015613129573d6000803e3d6000fd5b505050506040513d6000823e601f3d908101601f191682016040526131519190810190613da0565b905292915050565b6040805161010081018252600460e0820190815260608083019182526001600160a01b03808a166080850152881660a084015260c083018790529082526020808301869052828401859052925190926131b491839101613e2a565b60405160208183030381529060405291505095945050505050565b6040805160e081018252600360c082019081528183019081526001600160a01b03808816606080850191909152908716608084015260a0830186905290825260208083018590529251909261322691839101613e98565b604051602081830303815290604052915050949350505050565b6040805160a081018252600060808201818152825260208201819052918101829052606081019190915260026132768484611eb3565b600e811115613287576132876138ac565b146132df5760405162461bcd60e51b815260206004820152602260248201527f4d6573736167652074797065206973206e6f74204552433230207472616e736660448201526132b960f11b6064820152608401610638565b610f5b82840184613ebb565b611bc580613ed883390190565b60006020828403121561330a57600080fd5b81356001600160e01b031981168114610f5b57600080fd5b634e487b7160e01b600052604160045260246000fd5b604051602081016001600160401b038111828210171561335a5761335a613322565b60405290565b604051606081016001600160401b038111828210171561335a5761335a613322565b604051601f8201601f191681016001600160401b03811182821017156133aa576133aa613322565b604052919050565b60006001600160401b038211156133cb576133cb613322565b50601f01601f191660200190565b600082601f8301126133ea57600080fd5b81356133fd6133f8826133b2565b613382565b81815284602083860101111561341257600080fd5b816020850160208301376000918101602001919091529392505050565b6001600160a01b038116811461183b57600080fd5b600080600080600060a0868803121561345c57600080fd5b85356001600160401b0381111561347257600080fd5b61347e888289016133d9565b955050602086013561348f8161342f565b9350604086013561349f8161342f565b925060608601356134af8161342f565b915060808601356134bf8161342f565b809150509295509295909350565b6000602082840312156134df57600080fd5b5035919050565b600080604083850312156134f957600080fd5b82359150602083013561350b8161342f565b809150509250929050565b60008083601f84011261352857600080fd5b5081356001600160401b0381111561353f57600080fd5b602083019150836020828501011115612b0657600080fd5b6000806020838503121561356a57600080fd5b82356001600160401b0381111561358057600080fd5b61358c85828601613516565b90969095509350505050565b6000602082840312156135aa57600080fd5b8135610f5b8161342f565b60005b838110156135d05781810151838201526020016135b8565b50506000910152565b600081518084526135f18160208601602086016135b5565b601f01601f19169290920160200192915050565b602081526000610f5b60208301846135d9565b6000806040838503121561362b57600080fd5b82356136368161342f565b946020939093013593505050565b60008060008060006080868803121561365c57600080fd5b85356001600160401b0381111561367257600080fd5b61367e88828901613516565b90965094505060208601356136928161342f565b92506040860135915060608601356134bf8161342f565b600080600080606085870312156136bf57600080fd5b84356001600160401b038111156136d557600080fd5b6136e187828801613516565b90955093505060208501356136f58161342f565b9396929550929360400135925050565b6000806000806060858703121561371b57600080fd5b84359350602085013561372d8161342f565b925060408501356001600160401b0381111561374857600080fd5b61375487828801613516565b95989497509550505050565b6000806040838503121561377357600080fd5b50508035926020909101359150565b60008060006040848603121561379757600080fd5b83356001600160401b038111156137ad57600080fd5b6137b986828701613516565b90945092505060208401356137cd8161342f565b809150509250925092565b600080600080606085870312156137ee57600080fd5b84356001600160401b0381111561380457600080fd5b61381087828801613516565b90955093505060208501356138248161342f565b915060408501356138348161342f565b939692955090935050565b60208082526021908201527f4155544f4d415449435f4445504c4f595f524f4c4520697320726571756972656040820152601960fa1b606082015260800190565b600082516138928184602087016135b5565b9190910192915050565b8183823760009101908152919050565b634e487b7160e01b600052602160045260246000fd5b60208152816020820152818360408301376000818301604090810191909152601f909201601f19160101919050565b60006020828403121561390357600080fd5b81518015158114610f5b57600080fd5b60006020828403121561392557600080fd5b5051919050565b602080825260139082015272151c985b9cd9995c881dd85cc819985a5b1959606a1b604082015260600190565b8381526001600160a01b0383166020820152606060408201819052600090613983908301846135d9565b95945050505050565b6000826139a957634e487b7160e01b600052601260045260246000fd5b500690565b600080858511156139be57600080fd5b838611156139cb57600080fd5b5050820193919092039150565b8035600f81106139e757600080fd5b919050565b6000602082840312156139fe57600080fd5b610f5b826139d8565b604081526000613a1a60408301856135d9565b828103602084015261398381856135d9565b7f416363657373436f6e74726f6c3a206163636f756e7420000000000000000000815260008351613a648160178501602088016135b5565b7001034b99036b4b9b9b4b733903937b6329607d1b6017918401918201528351613a958160288401602088016135b5565b01602801949350505050565b805151600f8110613ac257634e487b7160e01b600052602160045260246000fd5b82526020818101516001600160a01b039081169184019190915260408083015190911690830152606090810151910152565b608081016105fe8284613aa1565b634e487b7160e01b600052601160045260246000fd5b808201808211156105fe576105fe613b02565b60008183036080811215613b3e57600080fd5b604051608081016001600160401b0381118282101715613b6057613b60613322565b6040529150816020821215613b7457600080fd5b613b7c613338565b9150613b87846139d8565b8252908152602083013590613b9b8261342f565b81602082015260408401359150613bb18261342f565b6040810191909152606092830135920191909152919050565b600060a0828403128015613bdd57600080fd5b50604080519081016001600160401b0381118282101715613c0057613c00613322565b604052613c0d8484613b2b565b815260809290920135602083015250919050565b60ff8116811461183b57600080fd5b600060208284031215613c4257600080fd5b81356001600160401b03811115613c5857600080fd5b820160c08185031215613c6a57600080fd5b613c72613360565b613c7c8583613b2b565b81526080820135602082015260a08201356001600160401b03811115613ca157600080fd5b919091019060608286031215613cb657600080fd5b613cbe613360565b82356001600160401b03811115613cd457600080fd5b613ce0878286016133d9565b8252506020830135613cf181613c21565b602082015260408301356001600160401b03811115613d0f57600080fd5b613d1b878286016133d9565b60408301525080604083015250809250505092915050565b818103818111156105fe576105fe613b02565b634e487b7160e01b600052603260045260246000fd5b80820281158282048414176105fe576105fe613b02565b600081613d8257613d82613b02565b506000190190565b634e487b7160e01b600052603160045260246000fd5b600060208284031215613db257600080fd5b81516001600160401b03811115613dc857600080fd5b8201601f81018413613dd957600080fd5b8051613de76133f8826133b2565b818152856020838501011115613dfc57600080fd5b6139838260208301602086016135b5565b600060208284031215613e1f57600080fd5b8151610f5b81613c21565b60208152613e3c602082018351613aa1565b602082015160a08201526000604083015160c0808401528051606060e0850152613e6a6101408501826135d9565b602083015160ff1661010086015260409092015184830360df190161012086015291905061398381836135d9565b600060a082019050613eab828451613aa1565b6020830151608083015292915050565b600060808284031215613ecd57600080fd5b610f5b8383613b2b56fe608060405234801561001057600080fd5b50604051611bc5380380611bc583398101604081905261002f91610504565b600054610100900460ff161580801561004f5750600054600160ff909116105b806100695750303b158015610069575060005460ff166001145b6100d15760405162461bcd60e51b815260206004820152602e60248201527f496e697469616c697a61626c653a20636f6e747261637420697320616c72656160448201526d191e481a5b9a5d1a585b1a5e995960921b60648201526084015b60405180910390fd5b6000805460ff1916600117905580156100f4576000805461ff0019166101001790555b6100fc61018c565b61010683836101e7565b61010e61018c565b610126600080516020611ba58339815191528061024e565b61013e600080516020611ba583398151915233610299565b8015610184576000805461ff0019169055604051600181527f7f26b83ff96e1f2b6a682f133852f6798a09c465da95921460cefb38474024989060200160405180910390a15b5050506106b3565b600054610100900460ff166101e55760405162461bcd60e51b815260206004820152602b6024820152600080516020611b8583398151915260448201526a6e697469616c697a696e6760a81b60648201526084016100c8565b565b600054610100900460ff166102405760405162461bcd60e51b815260206004820152602b6024820152600080516020611b8583398151915260448201526a6e697469616c697a696e6760a81b60648201526084016100c8565b61024a82826102a3565b5050565b600082815260656020526040808220600101805490849055905190918391839186917fbd79b86ffe0ab8e8776151514217cd7cacd52c909f66475c3af44e129f0b00ff9190a4505050565b61024a828261031a565b600054610100900460ff166102fc5760405162461bcd60e51b815260206004820152602b6024820152600080516020611b8583398151915260448201526a6e697469616c697a696e6760a81b60648201526084016100c8565b60cc61030883826105f5565b5060cd61031582826105f5565b505050565b610324828261033c565b600082815260976020526040902061031590826103de565b60008281526065602090815260408083206001600160a01b038516845290915290205460ff1661024a5760008281526065602090815260408083206001600160a01b03851684529091529020805460ff1916600117905561039a3390565b6001600160a01b0316816001600160a01b0316837f2f8788117e7eff1d82e926ec794901d17c78024a50270940304540a733656f0d60405160405180910390a45050565b60006103f3836001600160a01b0384166103fc565b90505b92915050565b6000818152600183016020526040812054610443575081546001818101845560008481526020808220909301849055845484825282860190935260409020919091556103f6565b5060006103f6565b634e487b7160e01b600052604160045260246000fd5b600082601f83011261047257600080fd5b81516001600160401b0381111561048b5761048b61044b565b604051601f8201601f19908116603f011681016001600160401b03811182821017156104b9576104b961044b565b6040528181528382016020018510156104d157600080fd5b60005b828110156104f0576020818601810151838301820152016104d4565b506000918101602001919091529392505050565b6000806040838503121561051757600080fd5b82516001600160401b0381111561052d57600080fd5b61053985828601610461565b602085015190935090506001600160401b0381111561055757600080fd5b61056385828601610461565b9150509250929050565b600181811c9082168061058157607f821691505b6020821081036105a157634e487b7160e01b600052602260045260246000fd5b50919050565b601f82111561031557806000526020600020601f840160051c810160208510156105ce5750805b601f840160051c820191505b818110156105ee57600081556001016105da565b5050505050565b81516001600160401b0381111561060e5761060e61044b565b6106228161061c845461056d565b846105a7565b6020601f821160018114610656576000831561063e5750848201515b600019600385901b1c1916600184901b1784556105ee565b600084815260208120601f198516915b828110156106865787850151825560209485019460019092019101610666565b50848210156106a45786840151600019600387901b60f8161c191681555b50505050600190811b01905550565b6114c3806106c26000396000f3fe608060405234801561001057600080fd5b50600436106101585760003560e01c806370a08231116100c3578063a457c2d71161007c578063a457c2d7146102ef578063a9059cbb14610302578063ca15c87314610315578063d539139314610328578063d547741f1461034f578063dd62ed3e1461036257600080fd5b806370a082311461026557806379cc67901461028e5780639010d07c146102a157806391d14854146102cc57806395d89b41146102df578063a217fddf146102e757600080fd5b80632f2ff15d116101155780632f2ff15d146101f5578063313ce5671461020a57806336568abe14610219578063395093511461022c57806340c10f191461023f57806342966c681461025257600080fd5b806301ffc9a71461015d57806306fdde0314610185578063095ea7b31461019a57806318160ddd146101ad57806323b872dd146101bf578063248a9ca3146101d2575b600080fd5b61017061016b366004611182565b610375565b60405190151581526020015b60405180910390f35b61018d6103a0565b60405161017c91906111d0565b6101706101a836600461121f565b610432565b60cb545b60405190815260200161017c565b6101706101cd366004611249565b61044a565b6101b16101e0366004611286565b60009081526065602052604090206001015490565b61020861020336600461129f565b61046e565b005b6040516012815260200161017c565b61020861022736600461129f565b610498565b61017061023a36600461121f565b61051b565b61020861024d36600461121f565b61053d565b610208610260366004611286565b6105b6565b6101b16102733660046112cb565b6001600160a01b0316600090815260c9602052604090205490565b61020861029c36600461121f565b6105c3565b6102b46102af3660046112e6565b6105d8565b6040516001600160a01b03909116815260200161017c565b6101706102da36600461129f565b6105f7565b61018d610622565b6101b1600081565b6101706102fd36600461121f565b610631565b61017061031036600461121f565b6106ac565b6101b1610323366004611286565b6106ba565b6101b17f9f2df0fed2c77648de5860a4cc508cd0818c85b8b8a1ab4ceeef8d981c8956a681565b61020861035d36600461129f565b6106d1565b6101b1610370366004611308565b6106f6565b60006001600160e01b03198216635a05180f60e01b148061039a575061039a82610721565b92915050565b606060cc80546103af90611332565b80601f01602080910402602001604051908101604052809291908181526020018280546103db90611332565b80156104285780601f106103fd57610100808354040283529160200191610428565b820191906000526020600020905b81548152906001019060200180831161040b57829003601f168201915b5050505050905090565b600033610440818585610756565b5060019392505050565b60003361045885828561087a565b6104638585856108f4565b506001949350505050565b60008281526065602052604090206001015461048981610a9f565b6104938383610aa9565b505050565b6001600160a01b038116331461050d5760405162461bcd60e51b815260206004820152602f60248201527f416363657373436f6e74726f6c3a2063616e206f6e6c792072656e6f756e636560448201526e103937b632b9903337b91039b2b63360891b60648201526084015b60405180910390fd5b6105178282610acb565b5050565b60003361044081858561052e83836106f6565b6105389190611382565b610756565b6105677f9f2df0fed2c77648de5860a4cc508cd0818c85b8b8a1ab4ceeef8d981c8956a6336105f7565b6105ac5760405162461bcd60e51b815260206004820152601660248201527529b2b73232b91034b9903737ba10309026b4b73a32b960511b6044820152606401610504565b6105178282610aed565b6105c03382610bae565b50565b6105ce82338361087a565b6105178282610bae565b60008281526097602052604081206105f09083610ce2565b9392505050565b60009182526065602090815260408084206001600160a01b0393909316845291905290205460ff1690565b606060cd80546103af90611332565b6000338161063f82866106f6565b90508381101561069f5760405162461bcd60e51b815260206004820152602560248201527f45524332303a2064656372656173656420616c6c6f77616e63652062656c6f77604482015264207a65726f60d81b6064820152608401610504565b6104638286868403610756565b6000336104408185856108f4565b600081815260976020526040812061039a90610cee565b6000828152606560205260409020600101546106ec81610a9f565b6104938383610acb565b6001600160a01b03918216600090815260ca6020908152604080832093909416825291909152205490565b60006001600160e01b03198216637965db0b60e01b148061039a57506301ffc9a760e01b6001600160e01b031983161461039a565b6001600160a01b0383166107b85760405162461bcd60e51b8152602060048201526024808201527f45524332303a20617070726f76652066726f6d20746865207a65726f206164646044820152637265737360e01b6064820152608401610504565b6001600160a01b0382166108195760405162461bcd60e51b815260206004820152602260248201527f45524332303a20617070726f766520746f20746865207a65726f206164647265604482015261737360f01b6064820152608401610504565b6001600160a01b03838116600081815260ca602090815260408083209487168084529482529182902085905590518481527f8c5be1e5ebec7d5bd14f71427d1e84f3dd0314c0f7b2291e5b200ac8c7c3b925910160405180910390a3505050565b600061088684846106f6565b905060001981146108ee57818110156108e15760405162461bcd60e51b815260206004820152601d60248201527f45524332303a20696e73756666696369656e7420616c6c6f77616e63650000006044820152606401610504565b6108ee8484848403610756565b50505050565b6001600160a01b0383166109585760405162461bcd60e51b815260206004820152602560248201527f45524332303a207472616e736665722066726f6d20746865207a65726f206164604482015264647265737360d81b6064820152608401610504565b6001600160a01b0382166109ba5760405162461bcd60e51b815260206004820152602360248201527f45524332303a207472616e7366657220746f20746865207a65726f206164647260448201526265737360e81b6064820152608401610504565b6001600160a01b038316600090815260c9602052604090205481811015610a325760405162461bcd60e51b815260206004820152602660248201527f45524332303a207472616e7366657220616d6f756e7420657863656564732062604482015265616c616e636560d01b6064820152608401610504565b6001600160a01b03808516600081815260c9602052604080822086860390559286168082529083902080548601905591517fddf252ad1be2c89b69c2b068fc378daa952ba7f163c4a11628f55a4df523b3ef90610a929086815260200190565b60405180910390a36108ee565b6105c08133610cf8565b610ab38282610d51565b60008281526097602052604090206104939082610dd7565b610ad58282610dec565b60008281526097602052604090206104939082610e53565b6001600160a01b038216610b435760405162461bcd60e51b815260206004820152601f60248201527f45524332303a206d696e7420746f20746865207a65726f2061646472657373006044820152606401610504565b8060cb6000828254610b559190611382565b90915550506001600160a01b038216600081815260c960209081526040808320805486019055518481527fddf252ad1be2c89b69c2b068fc378daa952ba7f163c4a11628f55a4df523b3ef910160405180910390a35050565b6001600160a01b038216610c0e5760405162461bcd60e51b815260206004820152602160248201527f45524332303a206275726e2066726f6d20746865207a65726f206164647265736044820152607360f81b6064820152608401610504565b6001600160a01b038216600090815260c9602052604090205481811015610c825760405162461bcd60e51b815260206004820152602260248201527f45524332303a206275726e20616d6f756e7420657863656564732062616c616e604482015261636560f01b6064820152608401610504565b6001600160a01b038316600081815260c960209081526040808320868603905560cb80548790039055518581529192917fddf252ad1be2c89b69c2b068fc378daa952ba7f163c4a11628f55a4df523b3ef910160405180910390a3505050565b60006105f08383610e68565b600061039a825490565b610d0282826105f7565b61051757610d0f81610e92565b610d1a836020610ea4565b604051602001610d2b929190611395565b60408051601f198184030181529082905262461bcd60e51b8252610504916004016111d0565b610d5b82826105f7565b6105175760008281526065602090815260408083206001600160a01b03851684529091529020805460ff19166001179055610d933390565b6001600160a01b0316816001600160a01b0316837f2f8788117e7eff1d82e926ec794901d17c78024a50270940304540a733656f0d60405160405180910390a45050565b60006105f0836001600160a01b038416611040565b610df682826105f7565b156105175760008281526065602090815260408083206001600160a01b0385168085529252808320805460ff1916905551339285917ff6391f5c32d9c69d2a47ea670b442974b53935d1edc7fd64eb21e047a839171b9190a45050565b60006105f0836001600160a01b03841661108f565b6000826000018281548110610e7f57610e7f61140a565b9060005260206000200154905092915050565b606061039a6001600160a01b03831660145b60606000610eb3836002611420565b610ebe906002611382565b67ffffffffffffffff811115610ed657610ed6611437565b6040519080825280601f01601f191660200182016040528015610f00576020820181803683370190505b509050600360fc1b81600081518110610f1b57610f1b61140a565b60200101906001600160f81b031916908160001a905350600f60fb1b81600181518110610f4a57610f4a61140a565b60200101906001600160f81b031916908160001a9053506000610f6e846002611420565b610f79906001611382565b90505b6001811115610ff1576f181899199a1a9b1b9c1cb0b131b232b360811b85600f1660108110610fad57610fad61140a565b1a60f81b828281518110610fc357610fc361140a565b60200101906001600160f81b031916908160001a90535060049490941c93610fea8161144d565b9050610f7c565b5083156105f05760405162461bcd60e51b815260206004820181905260248201527f537472696e67733a20686578206c656e67746820696e73756666696369656e746044820152606401610504565b60008181526001830160205260408120546110875750815460018181018455600084815260208082209093018490558454848252828601909352604090209190915561039a565b50600061039a565b600081815260018301602052604081205480156111785760006110b3600183611464565b85549091506000906110c790600190611464565b905081811461112c5760008660000182815481106110e7576110e761140a565b906000526020600020015490508087600001848154811061110a5761110a61140a565b6000918252602080832090910192909255918252600188019052604090208390555b855486908061113d5761113d611477565b60019003818190600052602060002001600090559055856001016000868152602001908152602001600020600090556001935050505061039a565b600091505061039a565b60006020828403121561119457600080fd5b81356001600160e01b0319811681146105f057600080fd5b60005b838110156111c75781810151838201526020016111af565b50506000910152565b60208152600082518060208401526111ef8160408501602087016111ac565b601f01601f19169190910160400192915050565b80356001600160a01b038116811461121a57600080fd5b919050565b6000806040838503121561123257600080fd5b61123b83611203565b946020939093013593505050565b60008060006060848603121561125e57600080fd5b61126784611203565b925061127560208501611203565b929592945050506040919091013590565b60006020828403121561129857600080fd5b5035919050565b600080604083850312156112b257600080fd5b823591506112c260208401611203565b90509250929050565b6000602082840312156112dd57600080fd5b6105f082611203565b600080604083850312156112f957600080fd5b50508035926020909101359150565b6000806040838503121561131b57600080fd5b61132483611203565b91506112c260208401611203565b600181811c9082168061134657607f821691505b60208210810361136657634e487b7160e01b600052602260045260246000fd5b50919050565b634e487b7160e01b600052601160045260246000fd5b8082018082111561039a5761039a61136c565b7f416363657373436f6e74726f6c3a206163636f756e74200000000000000000008152600083516113cd8160178501602088016111ac565b7001034b99036b4b9b9b4b733903937b6329607d1b60179184019182015283516113fe8160288401602088016111ac565b01602801949350505050565b634e487b7160e01b600052603260045260246000fd5b808202811582820484141761039a5761039a61136c565b634e487b7160e01b600052604160045260246000fd5b60008161145c5761145c61136c565b506000190190565b8181038181111561039a5761039a61136c565b634e487b7160e01b600052603160045260246000fdfea2646970667358221220ae2b8203a2ff8c3c10edc3f776c7833dded37b91025d5eb31d4d15c9207aa48064736f6c634300081b0033496e697469616c697a61626c653a20636f6e7472616374206973206e6f7420699f2df0fed2c77648de5860a4cc508cd0818c85b8b8a1ab4ceeef8d981c8956a67164765a3c8bd2513bdfa0c90f1bee9606e920fbf2c9071f310263fbd818684ba2646970667358221220008831743d84ce200f2d8643100507be0a766666b5ab78e203ab396d7ef62a3364736f6c634300081b0033",
  "linkReferences": {},
  "deployedLinkReferences": {}
}