{
  "_format": "hh-sol-artifact-1",
  "contractName": "TokenManagerERC1155",
  "sourceName": "contracts/schain/TokenManagers/TokenManagerERC1155.sol",
  "abi": [
    {
      "anonymous": false,
      "inputs": [
        {
          "indexed": false,
          "internalType": "address",
          "name": "oldValue",
          "type": "address"
        },
        {
          "indexed": false,
          "internalType": "address",
          "name": "newValue",
          "type": "address"
        }
      ],
      "name": "DepositBoxWasChanged",
      "type": "event"
    },
    {
      "anonymous": false,
      "inputs": [
        {
          "indexed": true,
          "internalType": "SchainHash",
          "name": "chainHash",
          "type": "bytes32"
        },
        {
          "indexed": true,
          "internalType": "address",
          "name": "erc1155OnMainnet",
          "type": "address"
        },
        {
          "indexed": true,
          "internalType": "address",
          "name": "erc1155OnSchain",
          "type": "address"
        }
      ],
      "name": "ERC1155TokenAdded",
      "type": "event"
    },
    {
      "anonymous": false,
      "inputs": [
        {
          "indexed": true,
          "internalType": "SchainHash",
          "name": "chainHash",
          "type": "bytes32"
        },
        {
          "indexed": true,
          "internalType": "address",
          "name": "erc1155OnMainnet",
          "type": "address"
        },
        {
          "indexed": true,
          "internalType": "address",
          "name": "erc1155OnSchain",
          "type": "address"
        }
      ],
      "name": "ERC1155TokenCreated",
      "type": "event"
    },
    {
      "anonymous": false,
      "inputs": [
        {
          "indexed": true,
          "internalType": "SchainHash",
          "name": "chainHash",
          "type": "bytes32"
        },
        {
          "indexed": true,
          "internalType": "address",
          "name": "contractOnMainnet",
          "type": "address"
        },
        {
          "indexed": false,
          "internalType": "uint256[]",
          "name": "ids",
          "type": "uint256[]"
        },
        {
          "indexed": false,
          "internalType": "uint256[]",
          "name": "amounts",
          "type": "uint256[]"
        }
      ],
      "name": "ERC1155TokenReady",
      "type": "event"
    },
    {
      "anonymous": false,
      "inputs": [
        {
          "indexed": true,
          "internalType": "SchainHash",
          "name": "chainHash",
          "type": "bytes32"
        },
        {
          "indexed": true,
          "internalType": "address",
          "name": "erc1155OnMainnet",
          "type": "address"
        },
        {
          "indexed": true,
          "internalType": "address",
          "name": "erc1155OnSchain",
          "type": "address"
        },
        {
          "indexed": false,
          "internalType": "uint256[]",
          "name": "ids",
          "type": "uint256[]"
        },
        {
          "indexed": false,
          "internalType": "uint256[]",
          "name": "amounts",
          "type": "uint256[]"
        }
      ],
      "name": "ERC1155TokenReceived",
      "type": "event"
    },
    {
      "anonymous": false,
      "inputs": [
        {
          "indexed": false,
          "internalType": "uint8",
          "name": "version",
          "type": "uint8"
        }
      ],
      "name": "Initialized",
      "type": "event"
    },
    {
      "anonymous": false,
      "inputs": [
        {
          "indexed": true,
          "internalType": "bytes32",
          "name": "role",
          "type": "bytes32"
        },
        {
          "indexed": true,
          "internalType": "bytes32",
          "name": "previousAdminRole",
          "type": "bytes32"
        },
        {
          "indexed": true,
          "internalType": "bytes32",
          "name": "newAdminRole",
          "type": "bytes32"
        }
      ],
      "name": "RoleAdminChanged",
      "type": "event"
    },
    {
      "anonymous": false,
      "inputs": [
        {
          "indexed": true,
          "internalType": "bytes32",
          "name": "role",
          "type": "bytes32"
        },
        {
          "indexed": true,
          "internalType": "address",
          "name": "account",
          "type": "address"
        },
        {
          "indexed": true,
          "internalType": "address",
          "name": "sender",
          "type": "address"
        }
      ],
      "name": "RoleGranted",
      "type": "event"
    },
    {
      "anonymous": false,
      "inputs": [
        {
          "indexed": true,
          "internalType": "bytes32",
          "name": "role",
          "type": "bytes32"
        },
        {
          "indexed": true,
          "internalType": "address",
          "name": "account",
          "type": "address"
        },
        {
          "indexed": true,
          "internalType": "address",
          "name": "sender",
          "type": "address"
        }
      ],
      "name": "RoleRevoked",
      "type": "event"
    },
    {
      "inputs": [],
      "name": "AUTOMATIC_DEPLOY_ROLE",
      "outputs": [
        {
          "internalType": "bytes32",
          "name": "",
          "type": "bytes32"
        }
      ],
      "stateMutability": "view",
      "type": "function"
    },
    {
      "inputs": [],
      "name": "DEFAULT_ADMIN_ROLE",
      "outputs": [
        {
          "internalType": "bytes32",
          "name": "",
          "type": "bytes32"
        }
      ],
      "stateMutability": "view",
      "type": "function"
    },
    {
      "inputs": [],
      "name": "MAINNET_HASH",
      "outputs": [
        {
          "internalType": "SchainHash",
          "name": "",
          "type": "bytes32"
        }
      ],
      "stateMutability": "view",
      "type": "function"
    },
    {
      "inputs": [],
      "name": "MAINNET_NAME",
      "outputs": [
        {
          "internalType": "string",
          "name": "",
          "type": "string"
        }
      ],
      "stateMutability": "view",
      "type": "function"
    },
    {
      "inputs": [],
      "name": "TOKEN_REGISTRAR_ROLE",
      "outputs": [
        {
          "internalType": "bytes32",
          "name": "",
          "type": "bytes32"
        }
      ],
      "stateMutability": "view",
      "type": "function"
    },
    {
      "inputs": [
        {
          "internalType": "string",
          "name": "originChainName",
          "type": "string"
        },
        {
          "internalType": "address",
          "name": "erc1155OnOriginChain",
          "type": "address"
        },
        {
          "internalType": "address",
          "name": "newErc1155OnSchain",
          "type": "address"
        }
      ],
      "name": "addERC1155TokenByOwner",
      "outputs": [],
      "stateMutability": "nonpayable",
      "type": "function"
    },
    {
      "inputs": [
        {
          "internalType": "string",
          "name": "schainName",
          "type": "string"
        },
        {
          "internalType": "address",
          "name": "newTokenManager",
          "type": "address"
        }
      ],
      "name": "addTokenManager",
      "outputs": [],
      "stateMutability": "nonpayable",
      "type": "function"
    },
    {
      "inputs": [
        {
          "internalType": "contract ERC1155OnChain",
          "name": "",
          "type": "address"
        }
      ],
      "name": "addedClones",
      "outputs": [
        {
          "internalType": "bool",
          "name": "",
          "type": "bool"
        }
      ],
      "stateMutability": "view",
      "type": "function"
    },
    {
      "inputs": [],
      "name": "automaticDeploy",
      "outputs": [
        {
          "internalType": "bool",
          "name": "",
          "type": "bool"
        }
      ],
      "stateMutability": "view",
      "type": "function"
    },
    {
      "inputs": [
        {
          "internalType": "address",
          "name": "newDepositBox",
          "type": "address"
        }
      ],
      "name": "changeDepositBoxAddress",
      "outputs": [],
      "stateMutability": "nonpayable",
      "type": "function"
    },
    {
      "inputs": [
        {
          "internalType": "SchainHash",
          "name": "",
          "type": "bytes32"
        },
        {
          "internalType": "address",
          "name": "",
          "type": "address"
        }
      ],
      "name": "clonesErc1155",
      "outputs": [
        {
          "internalType": "contract ERC1155OnChain",
          "name": "",
          "type": "address"
        }
      ],
      "stateMutability": "view",
      "type": "function"
    },
    {
      "inputs": [],
      "name": "communityLocker",
      "outputs": [
        {
          "internalType": "contract ICommunityLocker",
          "name": "",
          "type": "address"
        }
      ],
      "stateMutability": "view",
      "type": "function"
    },
    {
      "inputs": [],
      "name": "depositBox",
      "outputs": [
        {
          "internalType": "address",
          "name": "",
          "type": "address"
        }
      ],
      "stateMutability": "view",
      "type": "function"
    },
    {
      "inputs": [
        {
          "internalType": "address",
          "name": "",
          "type": "address"
        }
      ],
      "name": "deprecatedClonesErc1155",
      "outputs": [
        {
          "internalType": "contract ERC1155OnChain",
          "name": "",
          "type": "address"
        }
      ],
      "stateMutability": "view",
      "type": "function"
    },
    {
      "inputs": [],
      "name": "disableAutomaticDeploy",
      "outputs": [],
      "stateMutability": "nonpayable",
      "type": "function"
    },
    {
      "inputs": [],
      "name": "enableAutomaticDeploy",
      "outputs": [],
      "stateMutability": "nonpayable",
      "type": "function"
    },
    {
      "inputs": [
        {
          "internalType": "address",
          "name": "contractOnMainnet",
          "type": "address"
        },
        {
          "internalType": "uint256",
          "name": "id",
          "type": "uint256"
        },
        {
          "internalType": "uint256",
          "name": "amount",
          "type": "uint256"
        }
      ],
      "name": "exitToMainERC1155",
      "outputs": [],
      "stateMutability": "nonpayable",
      "type": "function"
    },
    {
      "inputs": [
        {
          "internalType": "address",
          "name": "contractOnMainnet",
          "type": "address"
        },
        {
          "internalType": "uint256[]",
          "name": "ids",
          "type": "uint256[]"
        },
        {
          "internalType": "uint256[]",
          "name": "amounts",
          "type": "uint256[]"
        }
      ],
      "name": "exitToMainERC1155Batch",
      "outputs": [],
      "stateMutability": "nonpayable",
      "type": "function"
    },
    {
      "inputs": [
        {
          "internalType": "bytes32",
          "name": "role",
          "type": "bytes32"
        }
      ],
      "name": "getRoleAdmin",
      "outputs": [
        {
          "internalType": "bytes32",
          "name": "",
          "type": "bytes32"
        }
      ],
      "stateMutability": "view",
      "type": "function"
    },
    {
      "inputs": [
        {
          "internalType": "bytes32",
          "name": "role",
          "type": "bytes32"
        },
        {
          "internalType": "uint256",
          "name": "index",
          "type": "uint256"
        }
      ],
      "name": "getRoleMember",
      "outputs": [
        {
          "internalType": "address",
          "name": "",
          "type": "address"
        }
      ],
      "stateMutability": "view",
      "type": "function"
    },
    {
      "inputs": [
        {
          "internalType": "bytes32",
          "name": "role",
          "type": "bytes32"
        }
      ],
      "name": "getRoleMemberCount",
      "outputs": [
        {
          "internalType": "uint256",
          "name": "",
          "type": "uint256"
        }
      ],
      "stateMutability": "view",
      "type": "function"
    },
    {
      "inputs": [
        {
          "internalType": "bytes32",
          "name": "role",
          "type": "bytes32"
        },
        {
          "internalType": "address",
          "name": "account",
          "type": "address"
        }
      ],
      "name": "grantRole",
      "outputs": [],
      "stateMutability": "nonpayable",
      "type": "function"
    },
    {
      "inputs": [
        {
          "internalType": "bytes32",
          "name": "role",
          "type": "bytes32"
        },
        {
          "internalType": "address",
          "name": "account",
          "type": "address"
        }
      ],
      "name": "hasRole",
      "outputs": [
        {
          "internalType": "bool",
          "name": "",
          "type": "bool"
        }
      ],
      "stateMutability": "view",
      "type": "function"
    },
    {
      "inputs": [
        {
          "internalType": "string",
          "name": "schainName",
          "type": "string"
        }
      ],
      "name": "hasTokenManager",
      "outputs": [
        {
          "internalType": "bool",
          "name": "",
          "type": "bool"
        }
      ],
      "stateMutability": "view",
      "type": "function"
    },
    {
      "inputs": [
        {
          "internalType": "string",
          "name": "newChainName",
          "type": "string"
        },
        {
          "internalType": "contract IMessageProxyForSchain",
          "name": "newMessageProxy",
          "type": "address"
        },
        {
          "internalType": "contract ITokenManagerLinker",
          "name": "newIMALinker",
          "type": "address"
        },
        {
          "internalType": "contract ICommunityLocker",
          "name": "newCommunityLocker",
          "type": "address"
        },
        {
          "internalType": "address",
          "name": "newDepositBox",
          "type": "address"
        }
      ],
      "name": "initialize",
      "outputs": [],
      "stateMutability": "nonpayable",
      "type": "function"
    },
    {
      "inputs": [
        {
          "internalType": "string",
          "name": "newSchainName",
          "type": "string"
        },
        {
          "internalType": "contract IMessageProxyForSchain",
          "name": "newMessageProxy",
          "type": "address"
        },
        {
          "internalType": "contract ITokenManagerLinker",
          "name": "newIMALinker",
          "type": "address"
        },
        {
          "internalType": "contract ICommunityLocker",
          "name": "newCommunityLocker",
          "type": "address"
        },
        {
          "internalType": "address",
          "name": "newDepositBox",
          "type": "address"
        }
      ],
      "name": "initializeTokenManager",
      "outputs": [],
      "stateMutability": "nonpayable",
      "type": "function"
    },
    {
      "inputs": [],
      "name": "messageProxy",
      "outputs": [
        {
          "internalType": "contract IMessageProxyForSchain",
          "name": "",
          "type": "address"
        }
      ],
      "stateMutability": "view",
      "type": "function"
    },
    {
      "inputs": [
        {
          "internalType": "address",
          "name": "operator",
          "type": "address"
        },
        {
          "internalType": "address",
          "name": "",
          "type": "address"
        },
        {
          "internalType": "uint256[]",
          "name": "",
          "type": "uint256[]"
        },
        {
          "internalType": "uint256[]",
          "name": "",
          "type": "uint256[]"
        },
        {
          "internalType": "bytes",
          "name": "",
          "type": "bytes"
        }
      ],
      "name": "onERC1155BatchReceived",
      "outputs": [
        {
          "internalType": "bytes4",
          "name": "",
          "type": "bytes4"
        }
      ],
      "stateMutability": "view",
      "type": "function"
    },
    {
      "inputs": [
        {
          "internalType": "address",
          "name": "operator",
          "type": "address"
        },
        {
          "internalType": "address",
          "name": "",
          "type": "address"
        },
        {
          "internalType": "uint256",
          "name": "",
          "type": "uint256"
        },
        {
          "internalType": "uint256",
          "name": "",
          "type": "uint256"
        },
        {
          "internalType": "bytes",
          "name": "",
          "type": "bytes"
        }
      ],
      "name": "onERC1155Received",
      "outputs": [
        {
          "internalType": "bytes4",
          "name": "",
          "type": "bytes4"
        }
      ],
      "stateMutability": "view",
      "type": "function"
    },
    {
      "inputs": [
        {
          "internalType": "SchainHash",
          "name": "fromChainHash",
          "type": "bytes32"
        },
        {
          "internalType": "address",
          "name": "sender",
          "type": "address"
        },
        {
          "internalType": "bytes",
          "name": "data",
          "type": "bytes"
        }
      ],
      "name": "postMessage",
      "outputs": [],
      "stateMutability": "nonpayable",
      "type": "function"
    },
    {
      "inputs": [
        {
          "internalType": "string",
          "name": "schainName",
          "type": "string"
        }
      ],
      "name": "removeTokenManager",
      "outputs": [],
      "stateMutability": "nonpayable",
      "type": "function"
    },
    {
      "inputs": [
        {
          "internalType": "bytes32",
          "name": "role",
          "type": "bytes32"
        },
        {
          "internalType": "address",
          "name": "account",
          "type": "address"
        }
      ],
      "name": "renounceRole",
      "outputs": [],
      "stateMutability": "nonpayable",
      "type": "function"
    },
    {
      "inputs": [
        {
          "internalType": "bytes32",
          "name": "role",
          "type": "bytes32"
        },
        {
          "internalType": "address",
          "name": "account",
          "type": "address"
        }
      ],
      "name": "revokeRole",
      "outputs": [],
      "stateMutability": "nonpayable",
      "type": "function"
    },
    {
      "inputs": [],
      "name": "schainHash",
      "outputs": [
        {
          "internalType": "SchainHash",
          "name": "",
          "type": "bytes32"
        }
      ],
      "stateMutability": "view",
      "type": "function"
    },
    {
      "inputs": [
        {
          "internalType": "bytes4",
          "name": "interfaceId",
          "type": "bytes4"
        }
      ],
      "name": "supportsInterface",
      "outputs": [
        {
          "internalType": "bool",
          "name": "",
          "type": "bool"
        }
      ],
      "stateMutability": "view",
      "type": "function"
    },
    {
      "inputs": [],
      "name": "tokenManagerLinker",
      "outputs": [
        {
          "internalType": "contract ITokenManagerLinker",
          "name": "",
          "type": "address"
        }
      ],
      "stateMutability": "view",
      "type": "function"
    },
    {
      "inputs": [
        {
          "internalType": "SchainHash",
          "name": "",
          "type": "bytes32"
        }
      ],
      "name": "tokenManagers",
      "outputs": [
        {
          "internalType": "address",
          "name": "",
          "type": "address"
        }
      ],
      "stateMutability": "view",
      "type": "function"
    },
    {
      "inputs": [
        {
          "internalType": "string",
          "name": "targetSchainName",
          "type": "string"
        },
        {
          "internalType": "address",
          "name": "contractOnMainnet",
          "type": "address"
        },
        {
          "internalType": "uint256",
          "name": "id",
          "type": "uint256"
        },
        {
          "internalType": "uint256",
          "name": "amount",
          "type": "uint256"
        }
      ],
      "name": "transferToSchainERC1155",
      "outputs": [],
      "stateMutability": "nonpayable",
      "type": "function"
    },
    {
      "inputs": [
        {
          "internalType": "string",
          "name": "targetSchainName",
          "type": "string"
        },
        {
          "internalType": "address",
          "name": "contractOnMainnet",
          "type": "address"
        },
        {
          "internalType": "uint256[]",
          "name": "ids",
          "type": "uint256[]"
        },
        {
          "internalType": "uint256[]",
          "name": "amounts",
          "type": "uint256[]"
        }
      ],
      "name": "transferToSchainERC1155Batch",
      "outputs": [],
      "stateMutability": "nonpayable",
      "type": "function"
    },
    {
      "inputs": [
        {
          "internalType": "SchainHash",
          "name": "",
          "type": "bytes32"
        },
        {
          "internalType": "address",
          "name": "",
          "type": "address"
        },
        {
          "internalType": "uint256",
          "name": "",
          "type": "uint256"
        }
      ],
      "name": "transferredAmount",
      "outputs": [
        {
          "internalType": "uint256",
          "name": "",
          "type": "uint256"
        }
      ],
      "stateMutability": "view",
      "type": "function"
    }
  ],
  "bytecode": "0x6080604052348015600f57600080fd5b50617c8e8061001f6000396000f3fe608060405234801561001057600080fd5b50600436106102485760003560e01c80636d6c68e61161013b578063c5d76664116100b8578063dec2deb61161007c578063dec2deb6146105b1578063e3e50fa4146105c5578063edcc12b5146105ee578063f23a6e6114610601578063f5b52e1f1461061457600080fd5b8063c5d766641461053e578063ca15c87314610551578063cb703bff14610564578063cc5b715b14610577578063d547741f1461059e57600080fd5b8063a217fddf116100ff578063a217fddf146104cc578063aebaaca9146104d4578063b9581c50146104f7578063bc197c81146104ff578063c0e312dc1461052b57600080fd5b80636d6c68e61461046d5780638369091714610480578063884cee5a146104935780639010d07c146104a657806391d14854146104b957600080fd5b80632f2ff15d116101c957806350f442801161018d57806350f44280146103ee5780635573b8b61461042157806357157cd9146104345780636ce681d2146104475780636d6112861461045a57600080fd5b80632f2ff15d1461039757806336568abe146103aa57806339927cf9146103bd5780633b690b6b146103d05780633fa194ce146103d957600080fd5b806315ecfe5e1161021057806315ecfe5e14610312578063248a9ca31461034657806328c5e182146103695780632d329262146103715780632dc151de1461038457600080fd5b806301ffc9a71461024d578063029996b8146102755780630b885ac31461027f5780630f1a8f74146102925780631420de3f146102d3575b600080fd5b61026061025b366004613cc2565b610627565b60405190151581526020015b60405180910390f35b61027d610652565b005b61027d61028d366004613e30565b6106a4565b6102bb6102a0366004613eb9565b60ce602052600090815260409020546001600160a01b031681565b6040516001600160a01b03909116815260200161026c565b6103046102e1366004613ed2565b60d260209081526000938452604080852082529284528284209052825290205481565b60405190815260200161026c565b6102bb610320366004613f0a565b60d16020908152600092835260408084209091529082529020546001600160a01b031681565b610304610354366004613eb9565b60009081526065602052604090206001015490565b610304610779565b61027d61037f366004613f82565b6107c2565b60ca546102bb906001600160a01b031681565b61027d6103a5366004613f0a565b6109d4565b61027d6103b8366004613f0a565b6109fe565b6102606103cb366004613fe8565b610a7c565b61030460cc5481565b610304600080516020617c3983398151915281565b6104146040518060400160405280600781526020016613585a5b9b995d60ca1b81525081565b60405161026c9190614079565b60c9546102bb906001600160a01b031681565b61027d6104423660046140d0565b610ad7565b61027d610455366004613e30565b610cd2565b60cd546102bb906001600160a01b031681565b60cb546102bb906001600160a01b031681565b61027d61048e366004614186565b610edf565b61027d6104a136600461420c565b610ff5565b6102bb6104b4366004614267565b61119e565b6102606104c7366004613f0a565b6111bd565b610304600081565b6102606104e2366004614289565b60d06020526000908152604090205460ff1681565b61027d6111e8565b61051261050d3660046142a6565b61122b565b6040516001600160e01b0319909116815260200161026c565b61027d610539366004613fe8565b6112b3565b61027d61054c36600461436e565b6113c8565b61030461055f366004613eb9565b6116ce565b61027d6105723660046143d5565b6116e5565b6103047ffda70c2cc66a36c14884ee85424961f51b1d92b4494751699b6d105b3bcbcba881565b61027d6105ac366004613f0a565b611831565b60cd5461026090600160a01b900460ff1681565b6102bb6105d3366004614289565b60cf602052600090815260409020546001600160a01b031681565b61027d6105fc366004614289565b611856565b61051261060f36600461442b565b61196c565b61027d6106223660046144a6565b6119f2565b60006001600160e01b0319821663112fc36360e01b148061064c575061064c82611aff565b92915050565b61066a600080516020617c39833981519152336111bd565b61068f5760405162461bcd60e51b8152600401610686906144db565b60405180910390fd5b60cd805460ff60a01b1916600160a01b179055565b600054610100900460ff16158080156106c45750600054600160ff909116105b806106de5750303b1580156106de575060005460ff166001145b6106fa5760405162461bcd60e51b81526004016106869061451c565b6000805460ff19166001179055801561071d576000805461ff0019166101001790555b61072a8686868686610cd2565b8015610771576000805461ff0019169055604051600181527f7f26b83ff96e1f2b6a682f133852f6798a09c465da95921460cefb3847402498906020015b60405180910390a15b505050505050565b6040518060400160405280600781526020016613585a5b9b995d60ca1b8152506040516020016107a9919061456a565b6040516020818303038152906040528051906020012081565b84848080601f016020809104026020016040519081016040528093929190818152602001838380828437600092018290525060405133945090925061080c9150849060200161456a565b60408051601f1981840301815282825280516020918201208383018352600784526613585a5b9b995d60ca1b84830152915191935061086c928492610851920161456a565b60405160208183030381529060405280519060200120141590565b6108885760405162461bcd60e51b815260040161068690614586565b6001600160a01b0382166108de5760405162461bcd60e51b815260206004820152601a60248201527f496e636f727265637420726563656976657220616464726573730000000000006044820152606401610686565b600081815260ce60205260409020546001600160a01b03166109125760405162461bcd60e51b8152600401610686906145d6565b6000888860405160200161092792919061460d565b60408051808303601f1901815290829052805160209091012060cb54632c98abc960e11b8352600483018290523360248401529092506001600160a01b031690635931579290604401600060405180830381600087803b15801561098a57600080fd5b505af115801561099e573d6000803e3d6000fd5b505050600082815260ce60205260409020546109c9915082906001600160a01b031689338a8a611b24565b505050505050505050565b6000828152606560205260409020600101546109ef81611e69565b6109f98383611e76565b505050565b6001600160a01b0381163314610a6e5760405162461bcd60e51b815260206004820152602f60248201527f416363657373436f6e74726f6c3a2063616e206f6e6c792072656e6f756e636560448201526e103937b632b9903337b91039b2b63360891b6064820152608401610686565b610a788282611e98565b5050565b6000806001600160a01b031660ce60008585604051602001610a9f92919061460d565b60408051808303601f19018152918152815160209283012083529082019290925201600020546001600160a01b031614159392505050565b86868080601f0160208091040260200160405190810160405280939291908181526020018383808284376000920182905250604051339450909250610b219150849060200161456a565b60408051601f1981840301815282825280516020918201208383018352600784526613585a5b9b995d60ca1b848301529151919350610b66928492610851920161456a565b610b825760405162461bcd60e51b815260040161068690614586565b6001600160a01b038216610bd85760405162461bcd60e51b815260206004820152601a60248201527f496e636f727265637420726563656976657220616464726573730000000000006044820152606401610686565b600081815260ce60205260409020546001600160a01b0316610c0c5760405162461bcd60e51b8152600401610686906145d6565b60008a8a604051602001610c2192919061460d565b60408051808303601f1901815290829052805160209091012060cb54632c98abc960e11b8352600483018290523360248401529092506001600160a01b031690635931579290604401600060405180830381600087803b158015610c8457600080fd5b505af1158015610c98573d6000803e3d6000fd5b505050600082815260ce6020526040902054610cc5915082906001600160a01b03168b338c8c8c8c611eba565b5050505050505050505050565b600054610100900460ff1615808015610cf25750600054600160ff909116105b80610d0c5750303b158015610d0c575060005460ff166001145b610d285760405162461bcd60e51b81526004016106869061451c565b6000805460ff191660011790558015610d4b576000805461ff0019166101001790555b6001600160a01b038216610da15760405162461bcd60e51b815260206004820181905260248201527f4465706f736974426f7820616464726573732068617320746f206265207365746044820152606401610686565b610da96122bc565b610db4600033612329565b610dcc600080516020617c3983398151915233612329565b610df67ffda70c2cc66a36c14884ee85424961f51b1d92b4494751699b6d105b3bcbcba833612329565b85604051602001610e07919061456a565b60408051601f19818403018152828252805160209182012060cc5560c980546001600160a01b038a81166001600160a01b03199283161790925560ca80548a841690831617905560cb805489841690831617905560cd8054928816929091168217905560008452908301527fc968af77923193016f61d74ba6827296db5e1f37ec4fab3ad1ef20e193395e59910160405180910390a18015610771576000805461ff0019169055604051600181527f7f26b83ff96e1f2b6a682f133852f6798a09c465da95921460cefb384740249890602001610768565b60cb54604080518082018252600781526613585a5b9b995d60ca1b60208083019190915291516001600160a01b0390931692635931579292610f2292910161456a565b60408051601f198184030181529082905280516020909101206001600160e01b031960e084901b1682526004820152336024820152604401600060405180830381600087803b158015610f7457600080fd5b505af1158015610f88573d6000803e3d6000fd5b50505050610fee6040518060400160405280600781526020016613585a5b9b995d60ca1b815250604051602001610fbf919061456a565b60408051601f19818403018152919052805160209091012060cd546001600160a01b0316873388888888611eba565b5050505050565b60c9546001600160a01b0316331461104f5760405162461bcd60e51b815260206004820152601c60248201527f53656e646572206973206e6f742061204d65737361676550726f7879000000006044820152606401610686565b838361105d8260cc54141590565b801561106e575061106e8282612333565b6110ba5760405162461bcd60e51b815260206004820152601b60248201527f526563656976657220636861696e20697320696e636f727265637400000000006044820152606401610686565b60006110c685856123c0565b90506000600982600e8111156110de576110de61461d565b14806110fb5750600a82600e8111156110f9576110f961461d565b145b156111125761110b88878761240b565b9050611194565b600b82600e8111156111265761112661461d565b14806111435750600c82600e8111156111415761114161461d565b145b156111535761110b8887876128cb565b60405162461bcd60e51b815260206004820152601660248201527526b2b9b9b0b3b2aa3cb8329034b9903ab735b737bbb760511b6044820152606401610686565b5050505050505050565b60008281526097602052604081206111b69083612ccd565b9392505050565b60009182526065602090815260408084206001600160a01b0393909316845291905290205460ff1690565b611200600080516020617c39833981519152336111bd565b61121c5760405162461bcd60e51b8152600401610686906144db565b60cd805460ff60a01b19169055565b60006001600160a01b03891630146112855760405162461bcd60e51b815260206004820152601d60248201527f5265766572742045524331313535206261746368207472616e736665720000006044820152606401610686565b507fbc197c819b3e337a6f9652dd10becd7eef83032af3b9d958d3d42f669414662198975050505050505050565b60ca546001600160a01b03163314806112d257506112d26000336111bd565b6113165760405162461bcd60e51b81526020600482015260156024820152742737ba1030baba3437b934bd32b21031b0b63632b960591b6044820152606401610686565b6000828260405160200161132b92919061460d565b60408051601f198184030181529181528151602092830120600081815260ce9093529120549091506001600160a01b03166113a85760405162461bcd60e51b815260206004820152601860248201527f546f6b656e204d616e61676572206973206e6f742073657400000000000000006044820152606401610686565b600090815260ce6020526040902080546001600160a01b03191690555050565b6113f27ffda70c2cc66a36c14884ee85424961f51b1d92b4494751699b6d105b3bcbcba8336111bd565b61143e5760405162461bcd60e51b815260206004820181905260248201527f544f4b454e5f5245474953545241525f524f4c452069732072657175697265646044820152606401610686565b6000848460405160200161145392919061460d565b60408051601f1981840301815290829052805160209091012060c954634ccd5cd560e11b83529092506001600160a01b03169063999ab9aa9061149c9088908890600401614633565b602060405180830381865afa1580156114b9573d6000803e3d6000fd5b505050506040513d601f19601f820116820180604052508101906114dd9190614662565b6115225760405162461bcd60e51b815260206004820152601660248201527510da185a5b881a5cc81b9bdd0818dbdb9b9958dd195960521b6044820152606401610686565b6001600160a01b0382163b6115795760405162461bcd60e51b815260206004820152601f60248201527f476976656e2061646472657373206973206e6f74206120636f6e7472616374006044820152606401610686565b600081815260d1602090815260408083206001600160a01b03878116855292529091205416156115e45760405162461bcd60e51b8152602060048201526016602482015275436f756c64206e6f742072656c696e6b20636c6f6e6560501b6044820152606401610686565b6001600160a01b038216600090815260d0602052604090205460ff161561164d5760405162461bcd60e51b815260206004820152601760248201527f436c6f6e652077617320616c72656164792061646465640000000000000000006044820152606401610686565b600081815260d1602090815260408083206001600160a01b0387811680865291845282852080546001600160a01b031916918816918217905580855260d0909352818420805460ff1916600117905590519192909184917ff86f4b9b158b421a62f31d8b430c86afba56c6bb611fb82bc115dd030903d36a91a45050505050565b600081815260976020526040812061064c90612cd9565b60ca546001600160a01b031633148061170457506117046000336111bd565b6117485760405162461bcd60e51b81526020600482015260156024820152742737ba1030baba3437b934bd32b21031b0b63632b960591b6044820152606401610686565b6000838360405160200161175d92919061460d565b60408051601f198184030181529181528151602092830120600081815260ce9093529120549091506001600160a01b0316156117db5760405162461bcd60e51b815260206004820152601c60248201527f546f6b656e204d616e6167657220697320616c726561647920736574000000006044820152606401610686565b6001600160a01b0382166118015760405162461bcd60e51b8152600401610686906145d6565b600090815260ce6020526040902080546001600160a01b0319166001600160a01b03929092169190911790555050565b60008281526065602052604090206001015461184c81611e69565b6109f98383611e98565b6118616000336111bd565b6118ad5760405162461bcd60e51b815260206004820152601e60248201527f44454641554c545f41444d494e5f524f4c4520697320726571756972656400006044820152606401610686565b6001600160a01b0381166119035760405162461bcd60e51b815260206004820181905260248201527f4465706f736974426f7820616464726573732068617320746f206265207365746044820152606401610686565b60cd54604080516001600160a01b03928316815291831660208301527fc968af77923193016f61d74ba6827296db5e1f37ec4fab3ad1ef20e193395e59910160405180910390a160cd80546001600160a01b0319166001600160a01b0392909216919091179055565b60006001600160a01b03871630146119c65760405162461bcd60e51b815260206004820152601760248201527f5265766572742045524331313535207472616e736665720000000000000000006044820152606401610686565b507ff23a6e612e1ff4830e658fe43f4e3cb4a5f8170bd5d9e69fb5d7a7fa9e4fdf979695505050505050565b60cb54604080518082018252600781526613585a5b9b995d60ca1b60208083019190915291516001600160a01b0390931692635931579292611a3592910161456a565b60408051601f198184030181529082905280516020909101206001600160e01b031960e084901b1682526004820152336024820152604401600060405180830381600087803b158015611a8757600080fd5b505af1158015611a9b573d6000803e3d6000fd5b505050506109f96040518060400160405280600781526020016613585a5b9b995d60ca1b815250604051602001611ad2919061456a565b60408051601f19818403018152919052805160209091012060cd546001600160a01b031685338686611b24565b60006001600160e01b03198216630271189760e51b148061064c575061064c82612ce3565b600086815260d1602090815260408083206001600160a01b03808916855292528220541680611b8e57506001600160a01b038516600090815260d06020526040902054859060ff1615611b895760405162461bcd60e51b815260040161068690614684565b600191505b6001600160a01b0381163b611be05760405162461bcd60e51b81526020600482015260186024820152772737903a37b5b2b71031b637b7329037b71039b1b430b4b760411b6044820152606401610686565b60405163e985e9c560e01b81523360048201523060248201526001600160a01b0382169063e985e9c590604401602060405180830381865afa158015611c2a573d6000803e3d6000fd5b505050506040513d601f19601f82011682018060405250810190611c4e9190614662565b611c965760405162461bcd60e51b81526020600482015260196024820152782737ba1030b63637bbb2b21022a92198989a9a902a37b5b2b760391b6044820152606401610686565b6000611ca487878787612d08565b90508215611d9057611ce0896040518060400160405280600781526020016613585a5b9b995d60ca1b815250604051602001610851919061456a565b611cfc5760405162461bcd60e51b8152600401610686906146bb565b611d098983338888612d6f565b9050611d278983611d1988612e25565b611d2288612e25565b612e6c565b604051637921219560e11b81526001600160a01b0383169063f242432a90611d5990339030908a908a9060040161470e565b600060405180830381600087803b158015611d7357600080fd5b505af1158015611d87573d6000803e3d6000fd5b50505050611df8565b604051637a94c56560e11b815233600482015260248101869052604481018590526001600160a01b0383169063f5298aca90606401600060405180830381600087803b158015611ddf57600080fd5b505af1158015611df3573d6000803e3d6000fd5b505050505b60c954604051634a24490160e11b81526001600160a01b0390911690639448920290611e2c908c908c908690600401614746565b600060405180830381600087803b158015611e4657600080fd5b505af1158015611e5a573d6000803e3d6000fd5b50505050505050505050505050565b611e738133612f5f565b50565b611e808282612fb8565b60008281526097602052604090206109f9908261303e565b611ea28282613053565b60008281526097602052604090206109f990826130ba565b600088815260d1602090815260408083206001600160a01b03808b16855292528220541680611f2457506001600160a01b038716600090815260d06020526040902054879060ff1615611f1f5760405162461bcd60e51b815260040161068690614684565b600191505b6001600160a01b0381163b611f765760405162461bcd60e51b81526020600482015260186024820152772737903a37b5b2b71031b637b7329037b71039b1b430b4b760411b6044820152606401610686565b60405163e985e9c560e01b81523360048201523060248201526001600160a01b0382169063e985e9c590604401602060405180830381865afa158015611fc0573d6000803e3d6000fd5b505050506040513d601f19601f82011682018060405250810190611fe49190614662565b61202c5760405162461bcd60e51b81526020600482015260196024820152782737ba1030b63637bbb2b21022a92198989a9a902a37b5b2b760391b6044820152606401610686565b600061209d898989898080602002602001604051908101604052809392919081815260200183836020028082843760009201919091525050604080516020808d0282810182019093528c82529093508c92508b9182918501908490808284376000920191909152506130cf92505050565b905082156121e2576120d98b6040518060400160405280600781526020016613585a5b9b995d60ca1b815250604051602001610851919061456a565b6120f55760405162461bcd60e51b8152600401610686906146bb565b6121048b83338a8a8a8a61311c565b90506121758b8389898080602002602001604051908101604052809392919081815260200183836020028082843760009201919091525050604080516020808d0282810182019093528c82529093508c92508b918291850190849080828437600092019190915250612e6c92505050565b604051631759616b60e11b81526001600160a01b03831690632eb2c2d6906121ab90339030908c908c908c908c906004016147ab565b600060405180830381600087803b1580156121c557600080fd5b505af11580156121d9573d6000803e3d6000fd5b50505050612249565b604051631ac8311560e21b81526001600160a01b03831690636b20c454906122169033908b908b908b908b9060040161480a565b600060405180830381600087803b15801561223057600080fd5b505af1158015612244573d6000803e3d6000fd5b505050505b60c954604051634a24490160e11b81526001600160a01b039091169063944892029061227d908e908e908690600401614746565b600060405180830381600087803b15801561229757600080fd5b505af11580156122ab573d6000803e3d6000fd5b505050505050505050505050505050565b600054610100900460ff166123275760405162461bcd60e51b815260206004820152602b60248201527f496e697469616c697a61626c653a20636f6e7472616374206973206e6f74206960448201526a6e697469616c697a696e6760a81b6064820152608401610686565b565b610a788282611e76565b6000612383836040518060400160405280600781526020016613585a5b9b995d60ca1b815250604051602001612369919061456a565b604051602081830303815290604052805190602001201490565b6123a957600083815260ce60205260409020546001600160a01b038381169116146111b6565b5060cd546001600160a01b03908116911614919050565b6000806123cf83850185613eb9565b90506123dc60208261484e565b6000036123ff576123f76123f284838188614870565b6123c0565b91505061064c565b6123f7838501856148ae565b60008061241884846123c0565b9050600080808080600986600e8111156124345761243461461d565b036124b55760006124458a8a613290565b90508060400151955080602001519450806060015193508060800151925060d160008c81526020019081526020016000206000866001600160a01b03166001600160a01b0316815260200190815260200160002060009054906101000a90046001600160a01b0316915050612668565b60006124c18a8a613343565b9050806000015160400151955080600001516020015194508060000151606001519350806000015160800151925060d160008c81526020019081526020016000206000866001600160a01b03166001600160a01b0316815260200190815260200160002060009054906101000a90046001600160a01b0316915060006001600160a01b0316826001600160a01b0316036126665760cd54600160a01b900460ff166125ae5760405162461bcd60e51b815260206004820152601c60248201527f4175746f6d61746963206465706c6f792069732064697361626c6564000000006044820152606401610686565b6020810151516040516125c090613c1f565b6125ca9190614079565b604051809103906000f0801580156125e6573d6000803e3d6000fd5b5060008c815260d1602090815260408083206001600160a01b038a811680865291845282852080546001600160a01b031916918716918217905580855260d0909352818420805460ff191660011790559051939550909290918e917fae5aabebaedd1b95e68d95d1bc05734a63a8e451f94b37864515b78c532247d99190a45b505b600986600e81111561267c5761267c61461d565b1480156126b857506126b88a6040518060400160405280600781526020016613585a5b9b995d60ca1b815250604051602001610851919061456a565b80156126d7575060008a815260d3602052604090206126d790856133da565b15612788576001600160a01b0384163b6127035760405162461bcd60e51b815260040161068690614684565b61271f8a8561271186612e25565b61271a86612e25565b6133fc565b604051637921219560e11b81526001600160a01b0385169063f242432a9061275190309089908890889060040161470e565b600060405180830381600087803b15801561276b57600080fd5b505af115801561277f573d6000803e3d6000fd5b50505050612800565b60405163731133e960e01b81526001600160a01b0386811660048301526024820185905260448201849052608060648301526000608483015282169063731133e99060a401600060405180830381600087803b1580156127e757600080fd5b505af11580156127fb573d6000803e3d6000fd5b505050505b806001600160a01b0316846001600160a01b03168b7f2349a6dafaf84dd371a44cd78bd587d9e750c3dfa1137d21f34f00e0d4babcb261283f87612e25565b61284887612e25565b604051612856929190614905565b60405180910390a460c95460405163e051116b60e01b81526001600160a01b0387811660048301529091169063e051116b90602401600060405180830381600087803b1580156128a557600080fd5b505af11580156128b9573d6000803e3d6000fd5b50969c9b505050505050505050505050565b6000806128d884846123c0565b905060008060608082600b86600e8111156128f5576128f561461d565b036129765760006129068a8a6134ef565b90508060400151955080602001519450806060015193508060800151925060d160008c81526020019081526020016000206000866001600160a01b03166001600160a01b0316815260200190815260200160002060009054906101000a90046001600160a01b0316915050612b14565b60006129828a8a6135a7565b9050806000015160400151955080600001516020015194508060000151606001519350806000015160800151925060d160008c81526020019081526020016000206000866001600160a01b03166001600160a01b0316815260200190815260200160002060009054906101000a90046001600160a01b0316915060006001600160a01b0316826001600160a01b031603612b125760cd54600160a01b900460ff16612a6f5760405162461bcd60e51b815260206004820152601c60248201527f4175746f6d61746963206465706c6f792069732064697361626c6564000000006044820152606401610686565b602081015151604051612a8190613c1f565b612a8b9190614079565b604051809103906000f080158015612aa7573d6000803e3d6000fd5b5060008c815260d1602090815260408083206001600160a01b038a81168086529190935281842080546001600160a01b03191693861693841790559051939550909290918e917fae5aabebaedd1b95e68d95d1bc05734a63a8e451f94b37864515b78c532247d99190a45b505b600b86600e811115612b2857612b2861461d565b148015612b645750612b648a6040518060400160405280600781526020016613585a5b9b995d60ca1b815250604051602001610851919061456a565b8015612b83575060008a815260d360205260409020612b8390856133da565b15612c24576001600160a01b0384163b612baf5760405162461bcd60e51b815260040161068690614684565b612bbb8a8585856133fc565b604051631759616b60e11b81526001600160a01b03851690632eb2c2d690612bed90309089908890889060040161492a565b600060405180830381600087803b158015612c0757600080fd5b505af1158015612c1b573d6000803e3d6000fd5b50505050612c87565b604051630fbfeffd60e11b81526001600160a01b03821690631f7fdffa90612c5490889087908790600401614985565b600060405180830381600087803b158015612c6e57600080fd5b505af1158015612c82573d6000803e3d6000fd5b505050505b806001600160a01b0316846001600160a01b03168b7f2349a6dafaf84dd371a44cd78bd587d9e750c3dfa1137d21f34f00e0d4babcb28686604051612856929190614905565b60006111b68383613643565b600061064c825490565b60006001600160e01b03198216635a05180f60e01b148061064c575061064c8261366d565b6040805160c081018252600960a0820190815281526001600160a01b03808716602080840191909152908616828401526060808301869052608083018590529251612d5591839101614a42565b604051602081830303815290604052915050949350505050565b600085815260d36020526040812060609190612d8b90876133da565b905080612db857612d9c87876136a2565b612db186868686612dac8b6137b3565b613841565b9150612dc7565b612dc486868686612d08565b91505b856001600160a01b0316877f601046fc8dbb772c2b88d30850532ffec5253f2e73c855af1c5f318a7a4562b0612dfc87612e25565b612e0587612e25565b604051612e13929190614905565b60405180910390a35095945050505050565b604080516001808252818301909252606091602080830190803683370190505090508181600081518110612e5b57612e5b614a50565b602002602001018181525050919050565b8051825114612ebd5760405162461bcd60e51b815260206004820152601a60248201527f496e636f7272656374206c656e677468206f66206172726179730000000000006044820152606401610686565b60005b8251811015610fee57818181518110612edb57612edb614a50565b602002602001015160d260008781526020019081526020016000206000866001600160a01b03166001600160a01b031681526020019081526020016000206000858481518110612f2d57612f2d614a50565b602002602001015181526020019081526020016000206000828254612f529190614a7c565b9091555050600101612ec0565b612f6982826111bd565b610a7857612f76816138c6565b612f818360206138d8565b604051602001612f92929190614a8f565b60408051601f198184030181529082905262461bcd60e51b825261068691600401614079565b612fc282826111bd565b610a785760008281526065602090815260408083206001600160a01b03851684529091529020805460ff19166001179055612ffa3390565b6001600160a01b0316816001600160a01b0316837f2f8788117e7eff1d82e926ec794901d17c78024a50270940304540a733656f0d60405160405180910390a45050565b60006111b6836001600160a01b038416613a73565b61305d82826111bd565b15610a785760008281526065602090815260408083206001600160a01b0385168085529252808320805460ff1916905551339285917ff6391f5c32d9c69d2a47ea670b442974b53935d1edc7fd64eb21e047a839171b9190a45050565b60006111b6836001600160a01b038416613ac2565b6040805160c081018252600b60a0820190815281526001600160a01b03808716602080840191909152908616828401526060808301869052608083018590529251612d5591839101614b67565b600087815260d3602052604081206060919061313890896133da565b9050806131ca5761314989896136a2565b6131c3888888888080602002602001604051908101604052809392919081815260200183836020028082843760009201919091525050604080516020808c0282810182019093528b82529093508b92508a9182918501908490808284376000920191909152506131be92508f91506137b39050565b613bb5565b915061323c565b613239888888888080602002602001604051908101604052809392919081815260200183836020028082843760009201919091525050604080516020808c0282810182019093528b82529093508b92508a9182918501908490808284376000920191909152506130cf92505050565b91505b876001600160a01b0316897f601046fc8dbb772c2b88d30850532ffec5253f2e73c855af1c5f318a7a4562b08888888860405161327c9493929190614b7a565b60405180910390a350979650505050505050565b6040805160c081018252600060a0820181815282526020820181905291810182905260608101829052608081019190915260096132cd84846123c0565b600e8111156132de576132de61461d565b146133375760405162461bcd60e51b8152602060048201526024808201527f4d6573736167652074797065206973206e6f742045524331313535207472616e60448201526339b332b960e11b6064820152608401610686565b6111b682840184614c43565b61334b613c2c565b600a61335784846123c0565b600e8111156133685761336861461d565b146133ce5760405162461bcd60e51b815260206004820152603060248201527f4d6573736167652074797065206973206e6f742045524331313535416e64546f60448201526f35b2b724b73337903a3930b739b332b960811b6064820152608401610686565b6111b682840184614ca6565b6001600160a01b038116600090815260018301602052604081205415156111b6565b805182511461344d5760405162461bcd60e51b815260206004820152601a60248201527f496e636f7272656374206c656e677468206f66206172726179730000000000006044820152606401610686565b60005b8251811015610fee5781818151811061346b5761346b614a50565b602002602001015160d260008781526020019081526020016000206000866001600160a01b03166001600160a01b0316815260200190815260200160002060008584815181106134bd576134bd614a50565b6020026020010151815260200190815260200160002060008282546134e29190614d27565b9091555050600101613450565b6040805160c081018252600060a082018181528252602082018190529181019190915260608082018190526080820152600b61352b84846123c0565b600e81111561353c5761353c61461d565b1461359b5760405162461bcd60e51b815260206004820152602960248201527f4d6573736167652074797065206973206e6f7420455243313135354261746368604482015268103a3930b739b332b960b91b6064820152608401610686565b6111b682840184614e66565b6135af613c84565b600c6135bb84846123c0565b600e8111156135cc576135cc61461d565b146136375760405162461bcd60e51b815260206004820152603560248201527f4d6573736167652074797065206973206e6f742045524331313535426174636860448201527420b7322a37b5b2b724b73337903a3930b739b332b960591b6064820152608401610686565b6111b682840184614ea2565b600082600001828154811061365a5761365a614a50565b9060005260206000200154905092915050565b60006001600160e01b03198216637965db0b60e01b148061064c57506301ffc9a760e01b6001600160e01b031983161461064c565b6001600160a01b0381163b6136f95760405162461bcd60e51b815260206004820152601f60248201527f476976656e2061646472657373206973206e6f74206120636f6e7472616374006044820152606401610686565b600082815260d36020526040902061371190826133da565b1561375e5760405162461bcd60e51b815260206004820152601f60248201527f4552433131353520546f6b656e2077617320616c7265616479206164646564006044820152606401610686565b600082815260d360205260409020613776908261303e565b506040516000906001600160a01b0383169084907ff86f4b9b158b421a62f31d8b430c86afba56c6bb611fb82bc115dd030903d36a908490a45050565b6040805160208101909152606081526040805160208101918290526303a24d0760e21b90915260006024820152806001600160a01b038416630e89341c60448301600060405180830381865afa158015613811573d6000803e3d6000fd5b505050506040513d6000823e601f3d908101601f191682016040526138399190810190614f22565b905292915050565b604080516101008101825260609160009190819081018060e0830180600a81525081526020018a6001600160a01b03168152602001896001600160a01b03168152602001888152602001878152508152602001848152509050806040516020016138ab9190614fa4565b60405160208183030381529060405291505095945050505050565b606061064c6001600160a01b03831660145b606060006138e7836002614fd0565b6138f2906002614a7c565b6001600160401b0381111561390957613909613cec565b6040519080825280601f01601f191660200182016040528015613933576020820181803683370190505b509050600360fc1b8160008151811061394e5761394e614a50565b60200101906001600160f81b031916908160001a905350600f60fb1b8160018151811061397d5761397d614a50565b60200101906001600160f81b031916908160001a90535060006139a1846002614fd0565b6139ac906001614a7c565b90505b6001811115613a24576f181899199a1a9b1b9c1cb0b131b232b360811b85600f16601081106139e0576139e0614a50565b1a60f81b8282815181106139f6576139f6614a50565b60200101906001600160f81b031916908160001a90535060049490941c93613a1d81614fe7565b90506139af565b5083156111b65760405162461bcd60e51b815260206004820181905260248201527f537472696e67733a20686578206c656e67746820696e73756666696369656e746044820152606401610686565b6000818152600183016020526040812054613aba5750815460018181018455600084815260208082209093018490558454848252828601909352604090209190915561064c565b50600061064c565b60008181526001830160205260408120548015613bab576000613ae6600183614d27565b8554909150600090613afa90600190614d27565b9050818114613b5f576000866000018281548110613b1a57613b1a614a50565b9060005260206000200154905080876000018481548110613b3d57613b3d614a50565b6000918252602080832090910192909255918252600188019052604090208390555b8554869080613b7057613b70614ffe565b60019003818190600052602060002001600090559055856001016000868152602001908152602001600020600090556001935050505061064c565b600091505061064c565b604080516101008101825260609160009190819081018060e0830180600c81525081526020018a6001600160a01b03168152602001896001600160a01b03168152602001888152602001878152508152602001848152509050806040516020016138ab9190615014565b612beb8061504e83390190565b6040805161010081018252600060e08201818152928201928352606082018190526080820181905260a0820181905260c08201529081905b8152602001613c7f6040518060200160405280606081525090565b905290565b6040805161010081018252600060e082018181529282019283526060808301829052608083019190915260a0820181905260c0820152908190613c64565b600060208284031215613cd457600080fd5b81356001600160e01b0319811681146111b657600080fd5b634e487b7160e01b600052604160045260246000fd5b604051602081016001600160401b0381118282101715613d2457613d24613cec565b60405290565b60405160a081016001600160401b0381118282101715613d2457613d24613cec565b604080519081016001600160401b0381118282101715613d2457613d24613cec565b604051601f8201601f191681016001600160401b0381118282101715613d9657613d96613cec565b604052919050565b60006001600160401b03821115613db757613db7613cec565b50601f01601f191660200190565b600082601f830112613dd657600080fd5b8135613de9613de482613d9e565b613d6e565b818152846020838601011115613dfe57600080fd5b816020850160208301376000918101602001919091529392505050565b6001600160a01b0381168114611e7357600080fd5b600080600080600060a08688031215613e4857600080fd5b85356001600160401b03811115613e5e57600080fd5b613e6a88828901613dc5565b9550506020860135613e7b81613e1b565b93506040860135613e8b81613e1b565b92506060860135613e9b81613e1b565b91506080860135613eab81613e1b565b809150509295509295909350565b600060208284031215613ecb57600080fd5b5035919050565b600080600060608486031215613ee757600080fd5b833592506020840135613ef981613e1b565b929592945050506040919091013590565b60008060408385031215613f1d57600080fd5b823591506020830135613f2f81613e1b565b809150509250929050565b60008083601f840112613f4c57600080fd5b5081356001600160401b03811115613f6357600080fd5b602083019150836020828501011115613f7b57600080fd5b9250929050565b600080600080600060808688031215613f9a57600080fd5b85356001600160401b03811115613fb057600080fd5b613fbc88828901613f3a565b9096509450506020860135613fd081613e1b565b94979396509394604081013594506060013592915050565b60008060208385031215613ffb57600080fd5b82356001600160401b0381111561401157600080fd5b61401d85828601613f3a565b90969095509350505050565b60005b8381101561404457818101518382015260200161402c565b50506000910152565b60008151808452614065816020860160208601614029565b601f01601f19169290920160200192915050565b6020815260006111b6602083018461404d565b60008083601f84011261409e57600080fd5b5081356001600160401b038111156140b557600080fd5b6020830191508360208260051b8501011115613f7b57600080fd5b60008060008060008060006080888a0312156140eb57600080fd5b87356001600160401b0381111561410157600080fd5b61410d8a828b01613f3a565b909850965050602088013561412181613e1b565b945060408801356001600160401b0381111561413c57600080fd5b6141488a828b0161408c565b90955093505060608801356001600160401b0381111561416757600080fd5b6141738a828b0161408c565b989b979a50959850939692959293505050565b60008060008060006060868803121561419e57600080fd5b85356141a981613e1b565b945060208601356001600160401b038111156141c457600080fd5b6141d08882890161408c565b90955093505060408601356001600160401b038111156141ef57600080fd5b6141fb8882890161408c565b969995985093965092949392505050565b6000806000806060858703121561422257600080fd5b84359350602085013561423481613e1b565b925060408501356001600160401b0381111561424f57600080fd5b61425b87828801613f3a565b95989497509550505050565b6000806040838503121561427a57600080fd5b50508035926020909101359150565b60006020828403121561429b57600080fd5b81356111b681613e1b565b60008060008060008060008060a0898b0312156142c257600080fd5b88356142cd81613e1b565b975060208901356142dd81613e1b565b965060408901356001600160401b038111156142f857600080fd5b6143048b828c0161408c565b90975095505060608901356001600160401b0381111561432357600080fd5b61432f8b828c0161408c565b90955093505060808901356001600160401b0381111561434e57600080fd5b61435a8b828c01613f3a565b999c989b5096995094979396929594505050565b6000806000806060858703121561438457600080fd5b84356001600160401b0381111561439a57600080fd5b6143a687828801613f3a565b90955093505060208501356143ba81613e1b565b915060408501356143ca81613e1b565b939692955090935050565b6000806000604084860312156143ea57600080fd5b83356001600160401b0381111561440057600080fd5b61440c86828701613f3a565b909450925050602084013561442081613e1b565b809150509250925092565b60008060008060008060a0878903121561444457600080fd5b863561444f81613e1b565b9550602087013561445f81613e1b565b9450604087013593506060870135925060808701356001600160401b0381111561448857600080fd5b61449489828a01613f3a565b979a9699509497509295939492505050565b6000806000606084860312156144bb57600080fd5b83356144c681613e1b565b95602085013595506040909401359392505050565b60208082526021908201527f4155544f4d415449435f4445504c4f595f524f4c4520697320726571756972656040820152601960fa1b606082015260800190565b6020808252602e908201527f496e697469616c697a61626c653a20636f6e747261637420697320616c72656160408201526d191e481a5b9a5d1a585b1a5e995960921b606082015260800190565b6000825161457c818460208701614029565b9190910192915050565b60208082526030908201527f546869732066756e6374696f6e206973206e6f7420666f72207472616e73666560408201526f1c9c9a5b99c81d1bc813585a5b9b995d60821b606082015260800190565b6020808252601f908201527f496e636f727265637420546f6b656e204d616e61676572206164647265737300604082015260600190565b8183823760009101908152919050565b634e487b7160e01b600052602160045260246000fd5b60208152816020820152818360408301376000818301604090810191909152601f909201601f19160101919050565b60006020828403121561467457600080fd5b815180151581146111b657600080fd5b6020808252601a908201527f496e636f7272656374206d61696e20636861696e20746f6b656e000000000000604082015260600190565b60208082526033908201527f4d61696e20636861696e20746f6b656e20636f756c64206e6f74206265207472604082015272185b9cd9995c9959081d1bc813585a5b9b995d606a1b606082015260800190565b6001600160a01b0394851681529290931660208301526040820152606081019190915260a06080820181905260009082015260c00190565b8381526001600160a01b03831660208201526060604082018190526000906147709083018461404d565b95945050505050565b81835260006001600160fb1b0383111561479257600080fd5b8260051b80836020870137939093016020019392505050565b6001600160a01b0387811682528616602082015260a0604082018190526000906147d89083018688614779565b82810360608401526147eb818587614779565b8381036080909401939093525050600081526020019695505050505050565b6001600160a01b038616815260606020820181905260009061482f9083018688614779565b8281036040840152614842818587614779565b98975050505050505050565b60008261486b57634e487b7160e01b600052601260045260246000fd5b500690565b6000808585111561488057600080fd5b8386111561488d57600080fd5b5050820193919092039150565b8035600f81106148a957600080fd5b919050565b6000602082840312156148c057600080fd5b6111b68261489a565b600081518084526020840193506020830160005b828110156148fb5781518652602095860195909101906001016148dd565b5093949350505050565b60408152600061491860408301856148c9565b828103602084015261477081856148c9565b6001600160a01b0385811682528416602082015260a060408201819052600090614956908301856148c9565b828103606084015261496881856148c9565b838103608090940193909352505060008152602001949350505050565b6001600160a01b03841681526080602082018190526000906149a9908301856148c9565b82810360408401526149bb81856148c9565b8381036060909401939093525050600081526020019392505050565b8051600f81106149f757634e487b7160e01b600052602160045260246000fd5b90915250565b614a088282516149d7565b6020818101516001600160a01b03908116918401919091526040808301519091169083015260608082015190830152608090810151910152565b60a0810161064c82846149fd565b634e487b7160e01b600052603260045260246000fd5b634e487b7160e01b600052601160045260246000fd5b8082018082111561064c5761064c614a66565b7f416363657373436f6e74726f6c3a206163636f756e7420000000000000000000815260008351614ac7816017850160208801614029565b7001034b99036b4b9b9b4b733903937b6329607d1b6017918401918201528351614af8816028840160208801614029565b01602801949350505050565b614b0f8282516149d7565b60018060a01b03602082015116602083015260018060a01b0360408201511660408301526000606082015160a06060850152614b4e60a08501826148c9565b90506080830151848203608086015261477082826148c9565b6020815260006111b66020830184614b04565b604081526000614b8e604083018688614779565b8281036020840152614ba1818587614779565b979650505050505050565b600060208284031215614bbe57600080fd5b614bc6613d02565b9050614bd18261489a565b815292915050565b600060a08284031215614beb57600080fd5b614bf3613d2a565b9050614bff8383614bac565b81526020820135614c0f81613e1b565b60208201526040820135614c2281613e1b565b60408201526060828101359082015260809182013591810191909152919050565b600060a08284031215614c5557600080fd5b6111b68383614bd9565b600060208284031215614c7157600080fd5b614c79613d02565b905081356001600160401b03811115614c9157600080fd5b614c9d84828501613dc5565b82525092915050565b600060208284031215614cb857600080fd5b81356001600160401b03811115614cce57600080fd5b820160c08185031215614ce057600080fd5b614ce8613d4c565b614cf28583614bd9565b815260a08201356001600160401b03811115614d0d57600080fd5b614d1986828501614c5f565b602083015250949350505050565b8181038181111561064c5761064c614a66565b600082601f830112614d4b57600080fd5b81356001600160401b03811115614d6457614d64613cec565b8060051b614d7460208201613d6e565b91825260208185018101929081019086841115614d9057600080fd5b6020860192505b83831015614db2578235825260209283019290910190614d97565b9695505050505050565b600060a08284031215614dce57600080fd5b614dd6613d2a565b9050614de28383614bac565b81526020820135614df281613e1b565b60208201526040820135614e0581613e1b565b604082015260608201356001600160401b03811115614e2357600080fd5b614e2f84828501614d3a565b60608301525060808201356001600160401b03811115614e4e57600080fd5b614e5a84828501614d3a565b60808301525092915050565b600060208284031215614e7857600080fd5b81356001600160401b03811115614e8e57600080fd5b614e9a84828501614dbc565b949350505050565b600060208284031215614eb457600080fd5b81356001600160401b03811115614eca57600080fd5b820160408185031215614edc57600080fd5b614ee4613d4c565b81356001600160401b03811115614efa57600080fd5b614f0686828501614dbc565b82525060208201356001600160401b03811115614d0d57600080fd5b600060208284031215614f3457600080fd5b81516001600160401b03811115614f4a57600080fd5b8201601f81018413614f5b57600080fd5b8051614f69613de482613d9e565b818152856020838501011115614f7e57600080fd5b614770826020830160208601614029565b6000815160208452614e9a602085018261404d565b60208152614fb66020820183516149fd565b6000602083015160c080840152614e9a60e0840182614f8f565b808202811582820484141761064c5761064c614a66565b600081614ff657614ff6614a66565b506000190190565b634e487b7160e01b600052603160045260246000fd5b6020815260008251604060208401526150306060840182614b04565b90506020840151601f198483030160408501526147708282614f8f56fe608060405234801561001057600080fd5b50604051612beb380380612beb83398101604081905261002f9161045d565b600054610100900460ff161580801561004f5750600054600160ff909116105b806100695750303b158015610069575060005460ff166001145b6100d15760405162461bcd60e51b815260206004820152602e60248201527f496e697469616c697a61626c653a20636f6e747261637420697320616c72656160448201526d191e481a5b9a5d1a585b1a5e995960921b60648201526084015b60405180910390fd5b6000805460ff1916600117905580156100f4576000805461ff0019166101001790555b6100fc61018a565b610105826101e5565b61010d61018a565b610125600080516020612bcb8339815191528061024a565b61013d600080516020612bcb83398151915233610295565b8015610183576000805461ff0019169055604051600181527f7f26b83ff96e1f2b6a682f133852f6798a09c465da95921460cefb38474024989060200160405180910390a15b505061066f565b600054610100900460ff166101e35760405162461bcd60e51b815260206004820152602b6024820152600080516020612bab83398151915260448201526a6e697469616c697a696e6760a81b60648201526084016100c8565b565b600054610100900460ff1661023e5760405162461bcd60e51b815260206004820152602b6024820152600080516020612bab83398151915260448201526a6e697469616c697a696e6760a81b60648201526084016100c8565b610247816102a3565b50565b600082815260656020526040808220600101805490849055905190918391839186917fbd79b86ffe0ab8e8776151514217cd7cacd52c909f66475c3af44e129f0b00ff9190a4505050565b61029f8282610305565b5050565b600054610100900460ff166102fc5760405162461bcd60e51b815260206004820152602b6024820152600080516020612bab83398151915260448201526a6e697469616c697a696e6760a81b60648201526084016100c8565b6102478161032c565b61030f8282610338565b600082815260976020526040902061032790826103da565b505050565b60cb61029f82826105b1565b60008281526065602090815260408083206001600160a01b038516845290915290205460ff1661029f5760008281526065602090815260408083206001600160a01b03851684529091529020805460ff191660011790556103963390565b6001600160a01b0316816001600160a01b0316837f2f8788117e7eff1d82e926ec794901d17c78024a50270940304540a733656f0d60405160405180910390a45050565b60006103ef836001600160a01b0384166103f8565b90505b92915050565b600081815260018301602052604081205461043f575081546001818101845560008481526020808220909301849055845484825282860190935260409020919091556103f2565b5060006103f2565b634e487b7160e01b600052604160045260246000fd5b60006020828403121561046f57600080fd5b81516001600160401b0381111561048557600080fd5b8201601f8101841361049657600080fd5b80516001600160401b038111156104af576104af610447565b604051601f8201601f19908116603f011681016001600160401b03811182821017156104dd576104dd610447565b6040528181528282016020018610156104f557600080fd5b60005b82811015610514576020818501810151838301820152016104f8565b50600091810160200191909152949350505050565b600181811c9082168061053d57607f821691505b60208210810361055d57634e487b7160e01b600052602260045260246000fd5b50919050565b601f82111561032757806000526020600020601f840160051c8101602085101561058a5750805b601f840160051c820191505b818110156105aa5760008155600101610596565b5050505050565b81516001600160401b038111156105ca576105ca610447565b6105de816105d88454610529565b84610563565b6020601f82116001811461061257600083156105fa5750848201515b600019600385901b1c1916600184901b1784556105aa565b600084815260208120601f198516915b828110156106425787850151825560209485019460019092019101610622565b50848210156106605786840151600019600387901b60f8161c191681555b50505050600190811b01905550565b61252d8061067e6000396000f3fe608060405234801561001057600080fd5b50600436106101365760003560e01c8063731133e9116100b8578063ca15c8731161007c578063ca15c873146102b4578063d5391393146102c7578063d547741f146102ee578063e985e9c514610301578063f242432a1461033d578063f5298aca1461035057600080fd5b8063731133e9146102485780639010d07c1461025b57806391d1485414610286578063a217fddf14610299578063a22cb465146102a157600080fd5b80632eb2c2d6116100ff5780632eb2c2d6146101dc5780632f2ff15d146101ef57806336568abe146102025780634e1273f4146102155780636b20c4541461023557600080fd5b8062fdd58e1461013b57806301ffc9a7146101615780630e89341c146101845780631f7fdffa146101a4578063248a9ca3146101b9575b600080fd5b61014e61014936600461195e565b610363565b6040519081526020015b60405180910390f35b61017461016f36600461199e565b6103fe565b6040519015158152602001610158565b6101976101923660046119bb565b610409565b6040516101589190611a24565b6101b76101b2366004611b83565b61049d565b005b61014e6101c73660046119bb565b60009081526065602052604090206001015490565b6101b76101ea366004611c25565b61051e565b6101b76101fd366004611cd8565b61056a565b6101b7610210366004611cd8565b610594565b610228610223366004611d04565b610612565b6040516101589190611e13565b6101b7610243366004611e26565b610733565b6101b7610256366004611e9d565b610776565b61026e610269366004611ee5565b6107f1565b6040516001600160a01b039091168152602001610158565b610174610294366004611cd8565b610810565b61014e600081565b6101b76102af366004611f07565b61083b565b61014e6102c23660046119bb565b610846565b61014e7f9f2df0fed2c77648de5860a4cc508cd0818c85b8b8a1ab4ceeef8d981c8956a681565b6101b76102fc366004611cd8565b61085d565b61017461030f366004611f43565b6001600160a01b03918216600090815260ca6020908152604080832093909416825291909152205460ff1690565b6101b761034b366004611f6d565b610882565b6101b761035e366004611fc5565b6108c7565b60006001600160a01b0383166103d35760405162461bcd60e51b815260206004820152602a60248201527f455243313135353a2061646472657373207a65726f206973206e6f742061207660448201526930b634b21037bbb732b960b11b60648201526084015b60405180910390fd5b50600081815260c9602090815260408083206001600160a01b03861684529091529020545b92915050565b60006103f88261090a565b606060cb805461041890611ff8565b80601f016020809104026020016040519081016040528092919081815260200182805461044490611ff8565b80156104915780601f1061046657610100808354040283529160200191610491565b820191906000526020600020905b81548152906001019060200180831161047457829003601f168201915b50505050509050919050565b6104c77f9f2df0fed2c77648de5860a4cc508cd0818c85b8b8a1ab4ceeef8d981c8956a633610810565b61050c5760405162461bcd60e51b815260206004820152601660248201527529b2b73232b91034b9903737ba10309026b4b73a32b960511b60448201526064016103ca565b6105188484848461094a565b50505050565b6001600160a01b03851633148061053a575061053a853361030f565b6105565760405162461bcd60e51b81526004016103ca90612032565b6105638585858585610a8b565b5050505050565b60008281526065602052604090206001015461058581610c23565b61058f8383610c30565b505050565b6001600160a01b03811633146106045760405162461bcd60e51b815260206004820152602f60248201527f416363657373436f6e74726f6c3a2063616e206f6e6c792072656e6f756e636560448201526e103937b632b9903337b91039b2b63360891b60648201526084016103ca565b61060e8282610c52565b5050565b606081518351146106775760405162461bcd60e51b815260206004820152602960248201527f455243313135353a206163636f756e747320616e6420696473206c656e677468604482015268040dad2e6dac2e8c6d60bb1b60648201526084016103ca565b600083516001600160401b0381111561069257610692611a37565b6040519080825280602002602001820160405280156106bb578160200160208202803683370190505b50905060005b845181101561072b576107068582815181106106df576106df612080565b60200260200101518583815181106106f9576106f9612080565b6020026020010151610363565b82828151811061071857610718612080565b60209081029190910101526001016106c1565b509392505050565b6001600160a01b03831633148061074f575061074f833361030f565b61076b5760405162461bcd60e51b81526004016103ca90612032565b61058f838383610c74565b6107a07f9f2df0fed2c77648de5860a4cc508cd0818c85b8b8a1ab4ceeef8d981c8956a633610810565b6107e55760405162461bcd60e51b815260206004820152601660248201527529b2b73232b91034b9903737ba10309026b4b73a32b960511b60448201526064016103ca565b61051884848484610df7565b60008281526097602052604081206108099083610ed3565b9392505050565b60009182526065602090815260408084206001600160a01b0393909316845291905290205460ff1690565b61060e338383610edf565b60008181526097602052604081206103f890610fbf565b60008281526065602052604090206001015461087881610c23565b61058f8383610c52565b6001600160a01b03851633148061089e575061089e853361030f565b6108ba5760405162461bcd60e51b81526004016103ca90612032565b6105638585858585610fc9565b6001600160a01b0383163314806108e357506108e3833361030f565b6108ff5760405162461bcd60e51b81526004016103ca90612032565b61058f8383836110f7565b60006001600160e01b03198216636cdb3d1360e11b148061093b57506001600160e01b031982166303a24d0760e21b145b806103f857506103f8826111fe565b6001600160a01b0384166109705760405162461bcd60e51b81526004016103ca90612096565b81518351146109915760405162461bcd60e51b81526004016103ca906120d7565b3360005b8451811015610a23578381815181106109b0576109b0612080565b602002602001015160c960008784815181106109ce576109ce612080565b602002602001015181526020019081526020016000206000886001600160a01b03166001600160a01b031681526020019081526020016000206000828254610a169190612135565b9091555050600101610995565b50846001600160a01b031660006001600160a01b0316826001600160a01b03167f4a39dc06d4c0dbc64b70af90fd698a233a518aa5d07e595d983b8c0526c8f7fb8787604051610a74929190612148565b60405180910390a461056381600087878787611223565b8151835114610aac5760405162461bcd60e51b81526004016103ca906120d7565b6001600160a01b038416610ad25760405162461bcd60e51b81526004016103ca90612176565b3360005b8451811015610bb5576000858281518110610af357610af3612080565b602002602001015190506000858381518110610b1157610b11612080565b602090810291909101810151600084815260c9835260408082206001600160a01b038e168352909352919091205490915081811015610b625760405162461bcd60e51b81526004016103ca906121bb565b600083815260c9602090815260408083206001600160a01b038e8116855292528083208585039055908b16825281208054849290610ba1908490612135565b909155505060019093019250610ad6915050565b50846001600160a01b0316866001600160a01b0316826001600160a01b03167f4a39dc06d4c0dbc64b70af90fd698a233a518aa5d07e595d983b8c0526c8f7fb8787604051610c05929190612148565b60405180910390a4610c1b818787878787611223565b505050505050565b610c2d813361137e565b50565b610c3a82826113d7565b600082815260976020526040902061058f908261145d565b610c5c8282611472565b600082815260976020526040902061058f90826114d9565b6001600160a01b038316610c9a5760405162461bcd60e51b81526004016103ca90612205565b8051825114610cbb5760405162461bcd60e51b81526004016103ca906120d7565b604080516020810190915260009081905233905b8351811015610d8a576000848281518110610cec57610cec612080565b602002602001015190506000848381518110610d0a57610d0a612080565b602090810291909101810151600084815260c9835260408082206001600160a01b038c168352909352919091205490915081811015610d5b5760405162461bcd60e51b81526004016103ca90612248565b600092835260c9602090815260408085206001600160a01b038b16865290915290922091039055600101610ccf565b5060006001600160a01b0316846001600160a01b0316826001600160a01b03167f4a39dc06d4c0dbc64b70af90fd698a233a518aa5d07e595d983b8c0526c8f7fb8686604051610ddb929190612148565b60405180910390a4604080516020810190915260009052610518565b6001600160a01b038416610e1d5760405162461bcd60e51b81526004016103ca90612096565b336000610e29856114ee565b90506000610e36856114ee565b9050600086815260c9602090815260408083206001600160a01b038b16845290915281208054879290610e6a908490612135565b909155505060408051878152602081018790526001600160a01b03808a1692600092918716917fc3d58168c5ae7397731d063d5bbf3d657854427343f4c083240f7aacaa2d0f62910160405180910390a4610eca83600089898989611539565b50505050505050565b600061080983836115f4565b816001600160a01b0316836001600160a01b031603610f525760405162461bcd60e51b815260206004820152602960248201527f455243313135353a2073657474696e6720617070726f76616c20737461747573604482015268103337b91039b2b63360b91b60648201526084016103ca565b6001600160a01b03838116600081815260ca6020908152604080832094871680845294825291829020805460ff191686151590811790915591519182527f17307eab39ab6107e8899845ad3d59bd9653f200f220920489ca2b5937696c31910160405180910390a3505050565b60006103f8825490565b6001600160a01b038416610fef5760405162461bcd60e51b81526004016103ca90612176565b336000610ffb856114ee565b90506000611008856114ee565b9050600086815260c9602090815260408083206001600160a01b038c1684529091529020548581101561104d5760405162461bcd60e51b81526004016103ca906121bb565b600087815260c9602090815260408083206001600160a01b038d8116855292528083208985039055908a1682528120805488929061108c908490612135565b909155505060408051888152602081018890526001600160a01b03808b16928c821692918816917fc3d58168c5ae7397731d063d5bbf3d657854427343f4c083240f7aacaa2d0f62910160405180910390a46110ec848a8a8a8a8a611539565b505050505050505050565b6001600160a01b03831661111d5760405162461bcd60e51b81526004016103ca90612205565b336000611129846114ee565b90506000611136846114ee565b604080516020808201835260009182905288825260c981528282206001600160a01b038b16835290522054909150848110156111845760405162461bcd60e51b81526004016103ca90612248565b600086815260c9602090815260408083206001600160a01b038b81168086529184528285208a8703905582518b81529384018a90529092908816917fc3d58168c5ae7397731d063d5bbf3d657854427343f4c083240f7aacaa2d0f62910160405180910390a4604080516020810190915260009052610eca565b60006001600160e01b03198216635a05180f60e01b14806103f857506103f88261161e565b6001600160a01b0384163b15610c1b5760405163bc197c8160e01b81526001600160a01b0385169063bc197c8190611267908990899088908890889060040161228c565b6020604051808303816000875af19250505080156112a2575060408051601f3d908101601f1916820190925261129f918101906122ea565b60015b61134e576112ae612307565b806308c379a0036112e757506112c2612323565b806112cd57506112e9565b8060405162461bcd60e51b81526004016103ca9190611a24565b505b60405162461bcd60e51b815260206004820152603460248201527f455243313135353a207472616e7366657220746f206e6f6e2d455243313135356044820152732932b1b2b4bb32b91034b6b83632b6b2b73a32b960611b60648201526084016103ca565b6001600160e01b0319811663bc197c8160e01b14610eca5760405162461bcd60e51b81526004016103ca9061239e565b6113888282610810565b61060e5761139581611653565b6113a0836020611665565b6040516020016113b19291906123e6565b60408051601f198184030181529082905262461bcd60e51b82526103ca91600401611a24565b6113e18282610810565b61060e5760008281526065602090815260408083206001600160a01b03851684529091529020805460ff191660011790556114193390565b6001600160a01b0316816001600160a01b0316837f2f8788117e7eff1d82e926ec794901d17c78024a50270940304540a733656f0d60405160405180910390a45050565b6000610809836001600160a01b038416611800565b61147c8282610810565b1561060e5760008281526065602090815260408083206001600160a01b0385168085529252808320805460ff1916905551339285917ff6391f5c32d9c69d2a47ea670b442974b53935d1edc7fd64eb21e047a839171b9190a45050565b6000610809836001600160a01b03841661184f565b6040805160018082528183019092526060916000919060208083019080368337019050509050828160008151811061152857611528612080565b602090810291909101015292915050565b6001600160a01b0384163b15610c1b5760405163f23a6e6160e01b81526001600160a01b0385169063f23a6e619061157d908990899088908890889060040161245b565b6020604051808303816000875af19250505080156115b8575060408051601f3d908101601f191682019092526115b5918101906122ea565b60015b6115c4576112ae612307565b6001600160e01b0319811663f23a6e6160e01b14610eca5760405162461bcd60e51b81526004016103ca9061239e565b600082600001828154811061160b5761160b612080565b9060005260206000200154905092915050565b60006001600160e01b03198216637965db0b60e01b14806103f857506301ffc9a760e01b6001600160e01b03198316146103f8565b60606103f86001600160a01b03831660145b606060006116748360026124a0565b61167f906002612135565b6001600160401b0381111561169657611696611a37565b6040519080825280601f01601f1916602001820160405280156116c0576020820181803683370190505b509050600360fc1b816000815181106116db576116db612080565b60200101906001600160f81b031916908160001a905350600f60fb1b8160018151811061170a5761170a612080565b60200101906001600160f81b031916908160001a905350600061172e8460026124a0565b611739906001612135565b90505b60018111156117b1576f181899199a1a9b1b9c1cb0b131b232b360811b85600f166010811061176d5761176d612080565b1a60f81b82828151811061178357611783612080565b60200101906001600160f81b031916908160001a90535060049490941c936117aa816124b7565b905061173c565b5083156108095760405162461bcd60e51b815260206004820181905260248201527f537472696e67733a20686578206c656e67746820696e73756666696369656e7460448201526064016103ca565b6000818152600183016020526040812054611847575081546001818101845560008481526020808220909301849055845484825282860190935260409020919091556103f8565b5060006103f8565b600081815260018301602052604081205480156119385760006118736001836124ce565b8554909150600090611887906001906124ce565b90508181146118ec5760008660000182815481106118a7576118a7612080565b90600052602060002001549050808760000184815481106118ca576118ca612080565b6000918252602080832090910192909255918252600188019052604090208390555b85548690806118fd576118fd6124e1565b6001900381819060005260206000200160009055905585600101600086815260200190815260200160002060009055600193505050506103f8565b60009150506103f8565b80356001600160a01b038116811461195957600080fd5b919050565b6000806040838503121561197157600080fd5b61197a83611942565b946020939093013593505050565b6001600160e01b031981168114610c2d57600080fd5b6000602082840312156119b057600080fd5b813561080981611988565b6000602082840312156119cd57600080fd5b5035919050565b60005b838110156119ef5781810151838201526020016119d7565b50506000910152565b60008151808452611a108160208601602086016119d4565b601f01601f19169290920160200192915050565b60208152600061080960208301846119f8565b634e487b7160e01b600052604160045260246000fd5b601f8201601f191681016001600160401b0381118282101715611a7257611a72611a37565b6040525050565b60006001600160401b03821115611a9257611a92611a37565b5060051b60200190565b600082601f830112611aad57600080fd5b8135611ab881611a79565b604051611ac58282611a4d565b80915082815260208101915060208360051b860101925085831115611ae957600080fd5b602085015b83811015611b06578035835260209283019201611aee565b5095945050505050565b600082601f830112611b2157600080fd5b81356001600160401b03811115611b3a57611b3a611a37565b604051611b51601f8301601f191660200182611a4d565b818152846020838601011115611b6657600080fd5b816020850160208301376000918101602001919091529392505050565b60008060008060808587031215611b9957600080fd5b611ba285611942565b935060208501356001600160401b03811115611bbd57600080fd5b611bc987828801611a9c565b93505060408501356001600160401b03811115611be557600080fd5b611bf187828801611a9c565b92505060608501356001600160401b03811115611c0d57600080fd5b611c1987828801611b10565b91505092959194509250565b600080600080600060a08688031215611c3d57600080fd5b611c4686611942565b9450611c5460208701611942565b935060408601356001600160401b03811115611c6f57600080fd5b611c7b88828901611a9c565b93505060608601356001600160401b03811115611c9757600080fd5b611ca388828901611a9c565b92505060808601356001600160401b03811115611cbf57600080fd5b611ccb88828901611b10565b9150509295509295909350565b60008060408385031215611ceb57600080fd5b82359150611cfb60208401611942565b90509250929050565b60008060408385031215611d1757600080fd5b82356001600160401b03811115611d2d57600080fd5b8301601f81018513611d3e57600080fd5b8035611d4981611a79565b604051611d568282611a4d565b80915082815260208101915060208360051b850101925087831115611d7a57600080fd5b6020840193505b82841015611da357611d9284611942565b825260209384019390910190611d81565b945050505060208301356001600160401b03811115611dc157600080fd5b611dcd85828601611a9c565b9150509250929050565b600081518084526020840193506020830160005b82811015611e09578151865260209586019590910190600101611deb565b5093949350505050565b6020815260006108096020830184611dd7565b600080600060608486031215611e3b57600080fd5b611e4484611942565b925060208401356001600160401b03811115611e5f57600080fd5b611e6b86828701611a9c565b92505060408401356001600160401b03811115611e8757600080fd5b611e9386828701611a9c565b9150509250925092565b60008060008060808587031215611eb357600080fd5b611ebc85611942565b9350602085013592506040850135915060608501356001600160401b03811115611c0d57600080fd5b60008060408385031215611ef857600080fd5b50508035926020909101359150565b60008060408385031215611f1a57600080fd5b611f2383611942565b915060208301358015158114611f3857600080fd5b809150509250929050565b60008060408385031215611f5657600080fd5b611f5f83611942565b9150611cfb60208401611942565b600080600080600060a08688031215611f8557600080fd5b611f8e86611942565b9450611f9c60208701611942565b9350604086013592506060860135915060808601356001600160401b03811115611cbf57600080fd5b600080600060608486031215611fda57600080fd5b611fe384611942565b95602085013595506040909401359392505050565b600181811c9082168061200c57607f821691505b60208210810361202c57634e487b7160e01b600052602260045260246000fd5b50919050565b6020808252602e908201527f455243313135353a2063616c6c6572206973206e6f7420746f6b656e206f776e60408201526d195c881bdc88185c1c1c9bdd995960921b606082015260800190565b634e487b7160e01b600052603260045260246000fd5b60208082526021908201527f455243313135353a206d696e7420746f20746865207a65726f206164647265736040820152607360f81b606082015260800190565b60208082526028908201527f455243313135353a2069647320616e6420616d6f756e7473206c656e677468206040820152670dad2e6dac2e8c6d60c31b606082015260800190565b634e487b7160e01b600052601160045260246000fd5b808201808211156103f8576103f861211f565b60408152600061215b6040830185611dd7565b828103602084015261216d8185611dd7565b95945050505050565b60208082526025908201527f455243313135353a207472616e7366657220746f20746865207a65726f206164604082015264647265737360d81b606082015260800190565b6020808252602a908201527f455243313135353a20696e73756666696369656e742062616c616e636520666f60408201526939103a3930b739b332b960b11b606082015260800190565b60208082526023908201527f455243313135353a206275726e2066726f6d20746865207a65726f206164647260408201526265737360e81b606082015260800190565b60208082526024908201527f455243313135353a206275726e20616d6f756e7420657863656564732062616c604082015263616e636560e01b606082015260800190565b6001600160a01b0386811682528516602082015260a0604082018190526000906122b890830186611dd7565b82810360608401526122ca8186611dd7565b905082810360808401526122de81856119f8565b98975050505050505050565b6000602082840312156122fc57600080fd5b815161080981611988565b600060033d11156123205760046000803e5060005160e01c5b90565b600060443d10156123315790565b6040513d600319016004823e80513d60248201116001600160401b038211171561235a57505090565b80820180516001600160401b03811115612375575050505090565b3d840160031901828201602001111561238f575050505090565b61072b60208285010185611a4d565b60208082526028908201527f455243313135353a204552433131353552656365697665722072656a656374656040820152676420746f6b656e7360c01b606082015260800190565b7f416363657373436f6e74726f6c3a206163636f756e742000000000000000000081526000835161241e8160178501602088016119d4565b7001034b99036b4b9b9b4b733903937b6329607d1b601791840191820152835161244f8160288401602088016119d4565b01602801949350505050565b6001600160a01b03868116825285166020820152604081018490526060810183905260a060808201819052600090612495908301846119f8565b979650505050505050565b80820281158282048414176103f8576103f861211f565b6000816124c6576124c661211f565b506000190190565b818103818111156103f8576103f861211f565b634e487b7160e01b600052603160045260246000fdfea26469706673582212200617706fec1740922e372829cb510b2ae1bd9ffbf1397b91facdf5e5494ca84e64736f6c634300081b0033496e697469616c697a61626c653a20636f6e7472616374206973206e6f7420699f2df0fed2c77648de5860a4cc508cd0818c85b8b8a1ab4ceeef8d981c8956a67164765a3c8bd2513bdfa0c90f1bee9606e920fbf2c9071f310263fbd818684ba2646970667358221220faede32d7da363a579ef9fc397edb6ed46c901c731bc6e306bd0b22889d63b0264736f6c634300081b0033",
  "linkReferences": {},
  "deployedLinkReferences": {}
}